{
  "_format": "hh-sol-artifact-1",
  "contractName": "MusicNFTMarketplace",
  "sourceName": "contracts/MusicNFTMarketplace.sol",
  "abi": [
    {
      "inputs": [
        {
          "internalType": "uint256",
          "name": "_royaltyFee",
          "type": "uint256"
        },
        {
          "internalType": "address",
          "name": "_artist",
          "type": "address"
        },
        {
          "internalType": "uint256[]",
          "name": "_prices",
          "type": "uint256[]"
        }
      ],
      "stateMutability": "payable",
      "type": "constructor"
    },
    {
      "anonymous": false,
      "inputs": [
        {
          "indexed": true,
          "internalType": "address",
          "name": "owner",
          "type": "address"
        },
        {
          "indexed": true,
          "internalType": "address",
          "name": "approved",
          "type": "address"
        },
        {
          "indexed": true,
          "internalType": "uint256",
          "name": "tokenId",
          "type": "uint256"
        }
      ],
      "name": "Approval",
      "type": "event"
    },
    {
      "anonymous": false,
      "inputs": [
        {
          "indexed": true,
          "internalType": "address",
          "name": "owner",
          "type": "address"
        },
        {
          "indexed": true,
          "internalType": "address",
          "name": "operator",
          "type": "address"
        },
        {
          "indexed": false,
          "internalType": "bool",
          "name": "approved",
          "type": "bool"
        }
      ],
      "name": "ApprovalForAll",
      "type": "event"
    },
    {
      "anonymous": false,
      "inputs": [
        {
          "indexed": true,
          "internalType": "uint256",
          "name": "tokenId",
          "type": "uint256"
        },
        {
          "indexed": true,
          "internalType": "address",
          "name": "seller",
          "type": "address"
        },
        {
          "indexed": false,
          "internalType": "address",
          "name": "buyer",
          "type": "address"
        },
        {
          "indexed": false,
          "internalType": "uint256",
          "name": "price",
          "type": "uint256"
        }
      ],
      "name": "MarketItemBought",
      "type": "event"
    },
    {
      "anonymous": false,
      "inputs": [
        {
          "indexed": true,
          "internalType": "uint256",
          "name": "tokenId",
          "type": "uint256"
        },
        {
          "indexed": true,
          "internalType": "address",
          "name": "seller",
          "type": "address"
        },
        {
          "indexed": false,
          "internalType": "uint256",
          "name": "price",
          "type": "uint256"
        }
      ],
      "name": "MarketItemRelisted",
      "type": "event"
    },
    {
      "anonymous": false,
      "inputs": [
        {
          "indexed": true,
          "internalType": "address",
          "name": "previousOwner",
          "type": "address"
        },
        {
          "indexed": true,
          "internalType": "address",
          "name": "newOwner",
          "type": "address"
        }
      ],
      "name": "OwnershipTransferred",
      "type": "event"
    },
    {
      "anonymous": false,
      "inputs": [
        {
          "indexed": true,
          "internalType": "address",
          "name": "from",
          "type": "address"
        },
        {
          "indexed": true,
          "internalType": "address",
          "name": "to",
          "type": "address"
        },
        {
          "indexed": true,
          "internalType": "uint256",
          "name": "tokenId",
          "type": "uint256"
        }
      ],
      "name": "Transfer",
      "type": "event"
    },
    {
      "inputs": [
        {
          "internalType": "address",
          "name": "to",
          "type": "address"
        },
        {
          "internalType": "uint256",
          "name": "tokenId",
          "type": "uint256"
        }
      ],
      "name": "approve",
      "outputs": [],
      "stateMutability": "nonpayable",
      "type": "function"
    },
    {
      "inputs": [],
      "name": "artist",
      "outputs": [
        {
          "internalType": "address",
          "name": "",
          "type": "address"
        }
      ],
      "stateMutability": "view",
      "type": "function"
    },
    {
      "inputs": [
        {
          "internalType": "address",
          "name": "owner",
          "type": "address"
        }
      ],
      "name": "balanceOf",
      "outputs": [
        {
          "internalType": "uint256",
          "name": "",
          "type": "uint256"
        }
      ],
      "stateMutability": "view",
      "type": "function"
    },
    {
      "inputs": [],
      "name": "baseExtension",
      "outputs": [
        {
          "internalType": "string",
          "name": "",
          "type": "string"
        }
      ],
      "stateMutability": "view",
      "type": "function"
    },
    {
      "inputs": [],
      "name": "baseURI",
      "outputs": [
        {
          "internalType": "string",
          "name": "",
          "type": "string"
        }
      ],
      "stateMutability": "view",
      "type": "function"
    },
    {
      "inputs": [
        {
          "internalType": "uint256",
          "name": "_tokenId",
          "type": "uint256"
        }
      ],
      "name": "buyToken",
      "outputs": [],
      "stateMutability": "payable",
      "type": "function"
    },
    {
      "inputs": [
        {
          "internalType": "uint256",
          "name": "_tokenId",
          "type": "uint256"
        },
        {
          "internalType": "uint256",
          "name": "_days",
          "type": "uint256"
        }
      ],
      "name": "extendTime",
      "outputs": [
        {
          "internalType": "bool",
          "name": "",
          "type": "bool"
        }
      ],
      "stateMutability": "payable",
      "type": "function"
    },
    {
      "inputs": [],
      "name": "getAllUnsoldTokens",
      "outputs": [
        {
          "components": [
            {
              "internalType": "uint256",
              "name": "tokenId",
              "type": "uint256"
            },
            {
              "internalType": "address payable",
              "name": "seller",
              "type": "address"
            },
            {
              "internalType": "uint256",
              "name": "price",
              "type": "uint256"
            },
            {
              "internalType": "string",
              "name": "status",
              "type": "string"
            },
            {
              "internalType": "uint256",
              "name": "rentDays",
              "type": "uint256"
            }
          ],
          "internalType": "struct MusicNFTMarketplace.MarketItem[]",
          "name": "",
          "type": "tuple[]"
        }
      ],
      "stateMutability": "view",
      "type": "function"
    },
    {
      "inputs": [
        {
          "internalType": "uint256",
          "name": "tokenId",
          "type": "uint256"
        }
      ],
      "name": "getApproved",
      "outputs": [
        {
          "internalType": "address",
          "name": "",
          "type": "address"
        }
      ],
      "stateMutability": "view",
      "type": "function"
    },
    {
      "inputs": [],
      "name": "getMyTokens",
      "outputs": [
        {
          "components": [
            {
              "internalType": "uint256",
              "name": "tokenId",
              "type": "uint256"
            },
            {
              "internalType": "address payable",
              "name": "seller",
              "type": "address"
            },
            {
              "internalType": "uint256",
              "name": "price",
              "type": "uint256"
            },
            {
              "internalType": "string",
              "name": "status",
              "type": "string"
            },
            {
              "internalType": "uint256",
              "name": "rentDays",
              "type": "uint256"
            }
          ],
          "internalType": "struct MusicNFTMarketplace.MarketItem[]",
          "name": "",
          "type": "tuple[]"
        }
      ],
      "stateMutability": "view",
      "type": "function"
    },
    {
      "inputs": [
        {
          "internalType": "address",
          "name": "owner",
          "type": "address"
        },
        {
          "internalType": "address",
          "name": "operator",
          "type": "address"
        }
      ],
      "name": "isApprovedForAll",
      "outputs": [
        {
          "internalType": "bool",
          "name": "",
          "type": "bool"
        }
      ],
      "stateMutability": "view",
      "type": "function"
    },
    {
      "inputs": [
        {
          "internalType": "uint256",
          "name": "_tokenId",
          "type": "uint256"
        },
        {
          "internalType": "uint256",
          "name": "_days",
          "type": "uint256"
        }
      ],
      "name": "lockToken",
      "outputs": [
        {
          "internalType": "bool",
          "name": "",
          "type": "bool"
        }
      ],
      "stateMutability": "payable",
      "type": "function"
    },
    {
      "inputs": [
        {
          "internalType": "uint256",
          "name": "",
          "type": "uint256"
        }
      ],
      "name": "marketItems",
      "outputs": [
        {
          "internalType": "uint256",
          "name": "tokenId",
          "type": "uint256"
        },
        {
          "internalType": "address payable",
          "name": "seller",
          "type": "address"
        },
        {
          "internalType": "uint256",
          "name": "price",
          "type": "uint256"
        },
        {
          "internalType": "string",
          "name": "status",
          "type": "string"
        },
        {
          "internalType": "uint256",
          "name": "rentDays",
          "type": "uint256"
        }
      ],
      "stateMutability": "view",
      "type": "function"
    },
    {
      "inputs": [],
      "name": "name",
      "outputs": [
        {
          "internalType": "string",
          "name": "",
          "type": "string"
        }
      ],
      "stateMutability": "view",
      "type": "function"
    },
    {
      "inputs": [],
      "name": "owner",
      "outputs": [
        {
          "internalType": "address",
          "name": "",
          "type": "address"
        }
      ],
      "stateMutability": "view",
      "type": "function"
    },
    {
      "inputs": [
        {
          "internalType": "uint256",
          "name": "tokenId",
          "type": "uint256"
        }
      ],
      "name": "ownerOf",
      "outputs": [
        {
          "internalType": "address",
          "name": "",
          "type": "address"
        }
      ],
      "stateMutability": "view",
      "type": "function"
    },
    {
      "inputs": [],
      "name": "renounceOwnership",
      "outputs": [],
      "stateMutability": "nonpayable",
      "type": "function"
    },
    {
      "inputs": [
        {
          "internalType": "uint256",
          "name": "_tokenId",
          "type": "uint256"
        },
        {
          "internalType": "uint256",
          "name": "_days",
          "type": "uint256"
        }
      ],
      "name": "rentToken",
      "outputs": [
        {
          "internalType": "bool",
          "name": "",
          "type": "bool"
        }
      ],
      "stateMutability": "payable",
      "type": "function"
    },
    {
      "inputs": [
        {
          "internalType": "uint256",
          "name": "_tokenId",
          "type": "uint256"
        },
        {
          "internalType": "uint256",
          "name": "_price",
          "type": "uint256"
        }
      ],
      "name": "resellToken",
      "outputs": [],
      "stateMutability": "payable",
      "type": "function"
    },
    {
      "inputs": [],
      "name": "royaltyFee",
      "outputs": [
        {
          "internalType": "uint256",
          "name": "",
          "type": "uint256"
        }
      ],
      "stateMutability": "view",
      "type": "function"
    },
    {
      "inputs": [
        {
          "internalType": "address",
          "name": "from",
          "type": "address"
        },
        {
          "internalType": "address",
          "name": "to",
          "type": "address"
        },
        {
          "internalType": "uint256",
          "name": "tokenId",
          "type": "uint256"
        }
      ],
      "name": "safeTransferFrom",
      "outputs": [],
      "stateMutability": "nonpayable",
      "type": "function"
    },
    {
      "inputs": [
        {
          "internalType": "address",
          "name": "from",
          "type": "address"
        },
        {
          "internalType": "address",
          "name": "to",
          "type": "address"
        },
        {
          "internalType": "uint256",
          "name": "tokenId",
          "type": "uint256"
        },
        {
          "internalType": "bytes",
          "name": "data",
          "type": "bytes"
        }
      ],
      "name": "safeTransferFrom",
      "outputs": [],
      "stateMutability": "nonpayable",
      "type": "function"
    },
    {
      "inputs": [
        {
          "internalType": "address",
          "name": "operator",
          "type": "address"
        },
        {
          "internalType": "bool",
          "name": "approved",
          "type": "bool"
        }
      ],
      "name": "setApprovalForAll",
      "outputs": [],
      "stateMutability": "nonpayable",
      "type": "function"
    },
    {
      "inputs": [
        {
          "internalType": "bytes4",
          "name": "interfaceId",
          "type": "bytes4"
        }
      ],
      "name": "supportsInterface",
      "outputs": [
        {
          "internalType": "bool",
          "name": "",
          "type": "bool"
        }
      ],
      "stateMutability": "view",
      "type": "function"
    },
    {
      "inputs": [],
      "name": "symbol",
      "outputs": [
        {
          "internalType": "string",
          "name": "",
          "type": "string"
        }
      ],
      "stateMutability": "view",
      "type": "function"
    },
    {
      "inputs": [
        {
          "internalType": "uint256",
          "name": "tokenId",
          "type": "uint256"
        }
      ],
      "name": "tokenURI",
      "outputs": [
        {
          "internalType": "string",
          "name": "",
          "type": "string"
        }
      ],
      "stateMutability": "view",
      "type": "function"
    },
    {
      "inputs": [
        {
          "internalType": "address",
          "name": "from",
          "type": "address"
        },
        {
          "internalType": "address",
          "name": "to",
          "type": "address"
        },
        {
          "internalType": "uint256",
          "name": "tokenId",
          "type": "uint256"
        }
      ],
      "name": "transferFrom",
      "outputs": [],
      "stateMutability": "nonpayable",
      "type": "function"
    },
    {
      "inputs": [
        {
          "internalType": "address",
          "name": "newOwner",
          "type": "address"
        }
      ],
      "name": "transferOwnership",
      "outputs": [],
      "stateMutability": "nonpayable",
      "type": "function"
    },
    {
      "inputs": [
        {
          "internalType": "uint256",
          "name": "_royaltyFee",
          "type": "uint256"
        }
      ],
      "name": "updateRoyaltyFee",
      "outputs": [],
      "stateMutability": "nonpayable",
      "type": "function"
    }
  ],
  "bytecode": "0x6080604052604051806080016040528060598152602001620051d360599139600790816200002e9190620009ce565b506040518060400160405280600581526020017f2e6a736f6e00000000000000000000000000000000000000000000000000000081525060089081620000759190620009ce565b506040516200522c3803806200522c83398181016040528101906200009b919062000ca5565b6040518060400160405280600681526020017f44417070466900000000000000000000000000000000000000000000000000008152506040518060400160405280600481526020017f44415050000000000000000000000000000000000000000000000000000000008152508160009081620001189190620009ce565b5080600190816200012a9190620009ce565b5050506200014d62000141620003ae60201b60201c565b620003b660201b60201c565b348382516200015d919062000d4f565b1115620001a1576040517f08c379a0000000000000000000000000000000000000000000000000000000008152600401620001989062000e47565b60405180910390fd5b82600a8190555081600960006101000a81548173ffffffffffffffffffffffffffffffffffffffff021916908373ffffffffffffffffffffffffffffffffffffffff16021790555060005b81518160ff161015620003a4576000828260ff168151811062000214576200021362000e69565b5b6020026020010151116200025f576040517f08c379a0000000000000000000000000000000000000000000000000000000008152600401620002569062000ee8565b60405180910390fd5b62000274308260ff166200047c60201b60201c565b600b6040518060a001604052808360ff1681526020013373ffffffffffffffffffffffffffffffffffffffff168152602001848460ff1681518110620002bf57620002be62000e69565b5b60200260200101518152602001604051806020016040528060008152508152602001600081525090806001815401808255809150506001900390600052602060002090600502016000909190919091506000820151816000015560208201518160010160006101000a81548173ffffffffffffffffffffffffffffffffffffffff021916908373ffffffffffffffffffffffffffffffffffffffff160217905550604082015181600201556060820151816003019081620003819190620009ce565b5060808201518160040155505080806200039b9062000f17565b915050620001ec565b5050505062001029565b600033905090565b6000600660009054906101000a900473ffffffffffffffffffffffffffffffffffffffff16905081600660006101000a81548173ffffffffffffffffffffffffffffffffffffffff021916908373ffffffffffffffffffffffffffffffffffffffff1602179055508173ffffffffffffffffffffffffffffffffffffffff168173ffffffffffffffffffffffffffffffffffffffff167f8be0079c531659141344cd1fd0a4f28419497f9722a3daafe3b4186f6b6457e060405160405180910390a35050565b600073ffffffffffffffffffffffffffffffffffffffff168273ffffffffffffffffffffffffffffffffffffffff1603620004ee576040517f08c379a0000000000000000000000000000000000000000000000000000000008152600401620004e59062000f95565b60405180910390fd5b620004ff81620006c260201b60201c565b1562000542576040517f08c379a0000000000000000000000000000000000000000000000000000000008152600401620005399062001007565b60405180910390fd5b620005586000838360016200070b60201b60201c565b6200056981620006c260201b60201c565b15620005ac576040517f08c379a0000000000000000000000000000000000000000000000000000000008152600401620005a39062001007565b60405180910390fd5b6001600360008473ffffffffffffffffffffffffffffffffffffffff1673ffffffffffffffffffffffffffffffffffffffff16815260200190815260200160002060008282540192505081905550816002600083815260200190815260200160002060006101000a81548173ffffffffffffffffffffffffffffffffffffffff021916908373ffffffffffffffffffffffffffffffffffffffff160217905550808273ffffffffffffffffffffffffffffffffffffffff16600073ffffffffffffffffffffffffffffffffffffffff167fddf252ad1be2c89b69c2b068fc378daa952ba7f163c4a11628f55a4df523b3ef60405160405180910390a4620006be6000838360016200071160201b60201c565b5050565b60008073ffffffffffffffffffffffffffffffffffffffff16620006ec836200071760201b60201c565b73ffffffffffffffffffffffffffffffffffffffff1614159050919050565b50505050565b50505050565b60006002600083815260200190815260200160002060009054906101000a900473ffffffffffffffffffffffffffffffffffffffff169050919050565b600081519050919050565b7f4e487b7100000000000000000000000000000000000000000000000000000000600052604160045260246000fd5b7f4e487b7100000000000000000000000000000000000000000000000000000000600052602260045260246000fd5b60006002820490506001821680620007d657607f821691505b602082108103620007ec57620007eb6200078e565b5b50919050565b60008190508160005260206000209050919050565b60006020601f8301049050919050565b600082821b905092915050565b600060088302620008567fffffffffffffffffffffffffffffffffffffffffffffffffffffffffffffffff8262000817565b62000862868362000817565b95508019841693508086168417925050509392505050565b6000819050919050565b6000819050919050565b6000620008af620008a9620008a3846200087a565b62000884565b6200087a565b9050919050565b6000819050919050565b620008cb836200088e565b620008e3620008da82620008b6565b84845462000824565b825550505050565b600090565b620008fa620008eb565b62000907818484620008c0565b505050565b5b818110156200092f5762000923600082620008f0565b6001810190506200090d565b5050565b601f8211156200097e576200094881620007f2565b620009538462000807565b8101602085101562000963578190505b6200097b620009728562000807565b8301826200090c565b50505b505050565b600082821c905092915050565b6000620009a36000198460080262000983565b1980831691505092915050565b6000620009be838362000990565b9150826002028217905092915050565b620009d98262000754565b67ffffffffffffffff811115620009f557620009f46200075f565b5b62000a018254620007bd565b62000a0e82828562000933565b600060209050601f83116001811462000a46576000841562000a31578287015190505b62000a3d8582620009b0565b86555062000aad565b601f19841662000a5686620007f2565b60005b8281101562000a805784890151825560018201915060208501945060208101905062000a59565b8683101562000aa0578489015162000a9c601f89168262000990565b8355505b6001600288020188555050505b505050505050565b6000604051905090565b600080fd5b600080fd5b62000ad4816200087a565b811462000ae057600080fd5b50565b60008151905062000af48162000ac9565b92915050565b600073ffffffffffffffffffffffffffffffffffffffff82169050919050565b600062000b278262000afa565b9050919050565b62000b398162000b1a565b811462000b4557600080fd5b50565b60008151905062000b598162000b2e565b92915050565b600080fd5b6000601f19601f8301169050919050565b62000b808262000b64565b810181811067ffffffffffffffff8211171562000ba25762000ba16200075f565b5b80604052505050565b600062000bb762000ab5565b905062000bc5828262000b75565b919050565b600067ffffffffffffffff82111562000be85762000be76200075f565b5b602082029050602081019050919050565b600080fd5b600062000c1562000c0f8462000bca565b62000bab565b9050808382526020820190506020840283018581111562000c3b5762000c3a62000bf9565b5b835b8181101562000c68578062000c53888262000ae3565b84526020840193505060208101905062000c3d565b5050509392505050565b600082601f83011262000c8a5762000c8962000b5f565b5b815162000c9c84826020860162000bfe565b91505092915050565b60008060006060848603121562000cc15762000cc062000abf565b5b600062000cd18682870162000ae3565b935050602062000ce48682870162000b48565b925050604084015167ffffffffffffffff81111562000d085762000d0762000ac4565b5b62000d168682870162000c72565b9150509250925092565b7f4e487b7100000000000000000000000000000000000000000000000000000000600052601160045260246000fd5b600062000d5c826200087a565b915062000d69836200087a565b925082820262000d79816200087a565b9150828204841483151762000d935762000d9262000d20565b5b5092915050565b600082825260208201905092915050565b7f4465706c6f796572206d7573742070617920726f79616c74792066656520666f60008201527f72206561636820746f6b656e206c6973746564206f6e20746865206d61726b6560208201527f74706c6163650000000000000000000000000000000000000000000000000000604082015250565b600062000e2f60468362000d9a565b915062000e3c8262000dab565b606082019050919050565b6000602082019050818103600083015262000e628162000e20565b9050919050565b7f4e487b7100000000000000000000000000000000000000000000000000000000600052603260045260246000fd5b7f5072696365206d7573742062652067726561746572207468616e203000000000600082015250565b600062000ed0601c8362000d9a565b915062000edd8262000e98565b602082019050919050565b6000602082019050818103600083015262000f038162000ec1565b9050919050565b600060ff82169050919050565b600062000f248262000f0a565b915060ff820362000f3a5762000f3962000d20565b5b600182019050919050565b7f4552433732313a206d696e7420746f20746865207a65726f2061646472657373600082015250565b600062000f7d60208362000d9a565b915062000f8a8262000f45565b602082019050919050565b6000602082019050818103600083015262000fb08162000f6e565b9050919050565b7f4552433732313a20746f6b656e20616c7265616479206d696e74656400000000600082015250565b600062000fef601c8362000d9a565b915062000ffc8262000fb7565b602082019050919050565b60006020820190508181036000830152620010228162000fe0565b9050919050565b61419a80620010396000396000f3fe6080604052600436106101c25760003560e01c8063715018a6116100f7578063baa3411011610095578063e219fc7511610064578063e219fc7514610645578063e985e9c514610661578063f2fde38b1461069e578063f7ccc184146106c7576101c2565b8063baa341101461057d578063c6682862146105ad578063c8144586146105d8578063c87b56dd14610608576101c2565b806395d89b41116100d157806395d89b41146104d5578063a22cb46514610500578063b88d4fde14610529578063b8997a9714610552576101c2565b8063715018a614610468578063767dd0761461047f5780638da5cb5b146104aa576101c2565b806343bc1612116101645780635b3b136a1161013e5780635b3b136a146103985780636352211e146103c35780636c0360eb1461040057806370a082311461042b576101c2565b806343bc1612146103035780634e83be471461032e57806351f28e1414610357576101c2565b8063095ea7b3116101a0578063095ea7b31461026c57806323b872dd146102955780632d296bf1146102be57806342842e0e146102da576101c2565b806301ffc9a7146101c757806306fdde0314610204578063081812fc1461022f575b600080fd5b3480156101d357600080fd5b506101ee60048036038101906101e99190612cfa565b6106f7565b6040516101fb9190612d42565b60405180910390f35b34801561021057600080fd5b506102196107d9565b6040516102269190612ded565b60405180910390f35b34801561023b57600080fd5b5061025660048036038101906102519190612e45565b61086b565b6040516102639190612eb3565b60405180910390f35b34801561027857600080fd5b50610293600480360381019061028e9190612efa565b6108b1565b005b3480156102a157600080fd5b506102bc60048036038101906102b79190612f3a565b6109c8565b005b6102d860048036038101906102d39190612e45565b610a28565b005b3480156102e657600080fd5b5061030160048036038101906102fc9190612f3a565b610cbe565b005b34801561030f57600080fd5b50610318610cde565b6040516103259190612eb3565b60405180910390f35b34801561033a57600080fd5b5061035560048036038101906103509190612e45565b610d04565b005b34801561036357600080fd5b5061037e60048036038101906103799190612e45565b610d16565b60405161038f959493929190612fbd565b60405180910390f35b3480156103a457600080fd5b506103ad610e04565b6040516103ba91906131b7565b60405180910390f35b3480156103cf57600080fd5b506103ea60048036038101906103e59190612e45565b611038565b6040516103f79190612eb3565b60405180910390f35b34801561040c57600080fd5b506104156110be565b6040516104229190612ded565b60405180910390f35b34801561043757600080fd5b50610452600480360381019061044d91906131d9565b61114c565b60405161045f9190613206565b60405180910390f35b34801561047457600080fd5b5061047d611203565b005b34801561048b57600080fd5b50610494611217565b6040516104a191906131b7565b60405180910390f35b3480156104b657600080fd5b506104bf611489565b6040516104cc9190612eb3565b60405180910390f35b3480156104e157600080fd5b506104ea6114b3565b6040516104f79190612ded565b60405180910390f35b34801561050c57600080fd5b506105276004803603810190610522919061324d565b611545565b005b34801561053557600080fd5b50610550600480360381019061054b91906133c2565b61155b565b005b34801561055e57600080fd5b506105676115bd565b6040516105749190613206565b60405180910390f35b61059760048036038101906105929190613445565b6115c3565b6040516105a49190612d42565b60405180910390f35b3480156105b957600080fd5b506105c2611794565b6040516105cf9190612ded565b60405180910390f35b6105f260048036038101906105ed9190613445565b611822565b6040516105ff9190612d42565b60405180910390f35b34801561061457600080fd5b5061062f600480360381019061062a9190612e45565b611a8f565b60405161063c9190612ded565b60405180910390f35b61065f600480360381019061065a9190613445565b611af7565b005b34801561066d57600080fd5b5061068860048036038101906106839190613485565b611c6a565b6040516106959190612d42565b60405180910390f35b3480156106aa57600080fd5b506106c560048036038101906106c091906131d9565b611cfe565b005b6106e160048036038101906106dc9190613445565b611d81565b6040516106ee9190612d42565b60405180910390f35b60007f80ac58cd000000000000000000000000000000000000000000000000000000007bffffffffffffffffffffffffffffffffffffffffffffffffffffffff1916827bffffffffffffffffffffffffffffffffffffffffffffffffffffffff191614806107c257507f5b5e139f000000000000000000000000000000000000000000000000000000007bffffffffffffffffffffffffffffffffffffffffffffffffffffffff1916827bffffffffffffffffffffffffffffffffffffffffffffffffffffffff1916145b806107d257506107d182611f52565b5b9050919050565b6060600080546107e8906134f4565b80601f0160208091040260200160405190810160405280929190818152602001828054610814906134f4565b80156108615780601f1061083657610100808354040283529160200191610861565b820191906000526020600020905b81548152906001019060200180831161084457829003601f168201915b5050505050905090565b600061087682611fbc565b6004600083815260200190815260200160002060009054906101000a900473ffffffffffffffffffffffffffffffffffffffff169050919050565b60006108bc82611038565b90508073ffffffffffffffffffffffffffffffffffffffff168373ffffffffffffffffffffffffffffffffffffffff160361092c576040517f08c379a000000000000000000000000000000000000000000000000000000000815260040161092390613597565b60405180910390fd5b8073ffffffffffffffffffffffffffffffffffffffff1661094b612007565b73ffffffffffffffffffffffffffffffffffffffff16148061097a575061097981610974612007565b611c6a565b5b6109b9576040517f08c379a00000000000000000000000000000000000000000000000000000000081526004016109b090613629565b60405180910390fd5b6109c3838361200f565b505050565b6109d96109d3612007565b826120c8565b610a18576040517f08c379a0000000000000000000000000000000000000000000000000000000008152600401610a0f906136bb565b60405180910390fd5b610a2383838361215d565b505050565b6000600b8281548110610a3e57610a3d6136db565b5b90600052602060002090600502016002015490506000600b8381548110610a6857610a676136db565b5b906000526020600020906005020160010160009054906101000a900473ffffffffffffffffffffffffffffffffffffffff169050813414610ade576040517f08c379a0000000000000000000000000000000000000000000000000000000008152600401610ad59061377c565b60405180910390fd5b6000600b8481548110610af457610af36136db565b5b906000526020600020906005020160010160006101000a81548173ffffffffffffffffffffffffffffffffffffffff021916908373ffffffffffffffffffffffffffffffffffffffff1602179055506040518060400160405280600381526020017f6275790000000000000000000000000000000000000000000000000000000000815250600b8481548110610b8d57610b8c6136db565b5b90600052602060002090600502016003019081610baa9190613948565b50610bb630338561215d565b600960009054906101000a900473ffffffffffffffffffffffffffffffffffffffff1673ffffffffffffffffffffffffffffffffffffffff166108fc600a549081150290604051600060405180830381858888f19350505050158015610c20573d6000803e3d6000fd5b508073ffffffffffffffffffffffffffffffffffffffff166108fc349081150290604051600060405180830381858888f19350505050158015610c67573d6000803e3d6000fd5b508073ffffffffffffffffffffffffffffffffffffffff16837fd356b8423ef89ccba8e4f1dbeccc60b41825fd97d432f2e6a6dbd11ae6ecec113385604051610cb1929190613a1a565b60405180910390a3505050565b610cd98383836040518060200160405280600081525061155b565b505050565b600960009054906101000a900473ffffffffffffffffffffffffffffffffffffffff1681565b610d0c612456565b80600a8190555050565b600b8181548110610d2657600080fd5b90600052602060002090600502016000915090508060000154908060010160009054906101000a900473ffffffffffffffffffffffffffffffffffffffff1690806002015490806003018054610d7b906134f4565b80601f0160208091040260200160405190810160405280929190818152602001828054610da7906134f4565b8015610df45780601f10610dc957610100808354040283529160200191610df4565b820191906000526020600020905b815481529060010190602001808311610dd757829003601f168201915b5050505050908060040154905085565b60606000610e113361114c565b905060008167ffffffffffffffff811115610e2f57610e2e613297565b5b604051908082528060200260200182016040528015610e6857816020015b610e55612c49565b815260200190600190039081610e4d5790505b509050600080600090505b600b8054905081101561102e573373ffffffffffffffffffffffffffffffffffffffff16610ea082611038565b73ffffffffffffffffffffffffffffffffffffffff160361101b57600b8181548110610ecf57610ece6136db565b5b90600052602060002090600502016040518060a0016040529081600082015481526020016001820160009054906101000a900473ffffffffffffffffffffffffffffffffffffffff1673ffffffffffffffffffffffffffffffffffffffff1673ffffffffffffffffffffffffffffffffffffffff16815260200160028201548152602001600382018054610f62906134f4565b80601f0160208091040260200160405190810160405280929190818152602001828054610f8e906134f4565b8015610fdb5780601f10610fb057610100808354040283529160200191610fdb565b820191906000526020600020905b815481529060010190602001808311610fbe57829003601f168201915b50505050508152602001600482015481525050838381518110611001576110006136db565b5b6020026020010181905250818061101790613a72565b9250505b808061102690613a72565b915050610e73565b5081935050505090565b600080611044836124d4565b9050600073ffffffffffffffffffffffffffffffffffffffff168173ffffffffffffffffffffffffffffffffffffffff16036110b5576040517f08c379a00000000000000000000000000000000000000000000000000000000081526004016110ac90613b06565b60405180910390fd5b80915050919050565b600780546110cb906134f4565b80601f01602080910402602001604051908101604052809291908181526020018280546110f7906134f4565b80156111445780601f1061111957610100808354040283529160200191611144565b820191906000526020600020905b81548152906001019060200180831161112757829003601f168201915b505050505081565b60008073ffffffffffffffffffffffffffffffffffffffff168273ffffffffffffffffffffffffffffffffffffffff16036111bc576040517f08c379a00000000000000000000000000000000000000000000000000000000081526004016111b390613b98565b60405180910390fd5b600360008373ffffffffffffffffffffffffffffffffffffffff1673ffffffffffffffffffffffffffffffffffffffff168152602001908152602001600020549050919050565b61120b612456565b6112156000612511565b565b606060006112243061114c565b905060008167ffffffffffffffff81111561124257611241613297565b5b60405190808252806020026020018201604052801561127b57816020015b611268612c49565b8152602001906001900390816112605790505b509050600080600090505b600b8054905081101561147f57600073ffffffffffffffffffffffffffffffffffffffff16600b82815481106112bf576112be6136db565b5b906000526020600020906005020160010160009054906101000a900473ffffffffffffffffffffffffffffffffffffffff1673ffffffffffffffffffffffffffffffffffffffff161461146c57600b81815481106113205761131f6136db565b5b90600052602060002090600502016040518060a0016040529081600082015481526020016001820160009054906101000a900473ffffffffffffffffffffffffffffffffffffffff1673ffffffffffffffffffffffffffffffffffffffff1673ffffffffffffffffffffffffffffffffffffffff168152602001600282015481526020016003820180546113b3906134f4565b80601f01602080910402602001604051908101604052809291908181526020018280546113df906134f4565b801561142c5780601f106114015761010080835404028352916020019161142c565b820191906000526020600020905b81548152906001019060200180831161140f57829003601f168201915b50505050508152602001600482015481525050838381518110611452576114516136db565b5b6020026020010181905250818061146890613a72565b9250505b808061147790613a72565b915050611286565b5081935050505090565b6000600660009054906101000a900473ffffffffffffffffffffffffffffffffffffffff16905090565b6060600180546114c2906134f4565b80601f01602080910402602001604051908101604052809291908181526020018280546114ee906134f4565b801561153b5780601f106115105761010080835404028352916020019161153b565b820191906000526020600020905b81548152906001019060200180831161151e57829003601f168201915b5050505050905090565b611557611550612007565b83836125d7565b5050565b61156c611566612007565b836120c8565b6115ab576040517f08c379a00000000000000000000000000000000000000000000000000000000081526004016115a2906136bb565b60405180910390fd5b6115b784848484612743565b50505050565b600a5481565b600080600b84815481106115da576115d96136db565b5b90600052602060002090600502016002015490506000600b8581548110611604576116036136db565b5b906000526020600020906005020160010160009054906101000a900473ffffffffffffffffffffffffffffffffffffffff16905083826116449190613bb8565b3414611685576040517f08c379a000000000000000000000000000000000000000000000000000000000815260040161167c9061377c565b60405180910390fd5b600960009054906101000a900473ffffffffffffffffffffffffffffffffffffffff1673ffffffffffffffffffffffffffffffffffffffff166108fc600a549081150290604051600060405180830381858888f193505050501580156116ef573d6000803e3d6000fd5b508073ffffffffffffffffffffffffffffffffffffffff166108fc349081150290604051600060405180830381858888f19350505050158015611736573d6000803e3d6000fd5b508073ffffffffffffffffffffffffffffffffffffffff16857fd356b8423ef89ccba8e4f1dbeccc60b41825fd97d432f2e6a6dbd11ae6ecec113385604051611780929190613a1a565b60405180910390a360019250505092915050565b600880546117a1906134f4565b80601f01602080910402602001604051908101604052809291908181526020018280546117cd906134f4565b801561181a5780601f106117ef5761010080835404028352916020019161181a565b820191906000526020600020905b8154815290600101906020018083116117fd57829003601f168201915b505050505081565b6000808260016118329190613bb8565b90506000600b858154811061184a576118496136db565b5b906000526020600020906005020160010160009054906101000a900473ffffffffffffffffffffffffffffffffffffffff1690506000600b8681548110611894576118936136db565b5b906000526020600020906005020160010160006101000a81548173ffffffffffffffffffffffffffffffffffffffff021916908373ffffffffffffffffffffffffffffffffffffffff1602179055506040518060400160405280600481526020017f72656e7400000000000000000000000000000000000000000000000000000000815250600b868154811061192d5761192c6136db565b5b9060005260206000209060050201600301908161194a9190613948565b5083600b86815481106119605761195f6136db565b5b90600052602060002090600502016004018190555061198030338761215d565b600960009054906101000a900473ffffffffffffffffffffffffffffffffffffffff1673ffffffffffffffffffffffffffffffffffffffff166108fc600a549081150290604051600060405180830381858888f193505050501580156119ea573d6000803e3d6000fd5b508073ffffffffffffffffffffffffffffffffffffffff166108fc349081150290604051600060405180830381858888f19350505050158015611a31573d6000803e3d6000fd5b508073ffffffffffffffffffffffffffffffffffffffff16857fd356b8423ef89ccba8e4f1dbeccc60b41825fd97d432f2e6a6dbd11ae6ecec113385604051611a7b929190613a1a565b60405180910390a360019250505092915050565b6060611a9a82611fbc565b6000611aa461279f565b90506000815111611ac45760405180602001604052806000815250611aef565b80611ace84612831565b604051602001611adf929190613c36565b6040516020818303038152906040525b915050919050565b600a543414611b3b576040517f08c379a0000000000000000000000000000000000000000000000000000000008152600401611b3290613ca6565b60405180910390fd5b60008111611b7e576040517f08c379a0000000000000000000000000000000000000000000000000000000008152600401611b7590613d12565b60405180910390fd5b80600b8381548110611b9357611b926136db565b5b90600052602060002090600502016002018190555033600b8381548110611bbd57611bbc6136db565b5b906000526020600020906005020160010160006101000a81548173ffffffffffffffffffffffffffffffffffffffff021916908373ffffffffffffffffffffffffffffffffffffffff160217905550611c1733308461215d565b3373ffffffffffffffffffffffffffffffffffffffff16827fb2ba12d2566848b13548a3741edb565b69d3cbce7796959cd67431610207eb1383604051611c5e9190613206565b60405180910390a35050565b6000600560008473ffffffffffffffffffffffffffffffffffffffff1673ffffffffffffffffffffffffffffffffffffffff16815260200190815260200160002060008373ffffffffffffffffffffffffffffffffffffffff1673ffffffffffffffffffffffffffffffffffffffff16815260200190815260200160002060009054906101000a900460ff16905092915050565b611d06612456565b600073ffffffffffffffffffffffffffffffffffffffff168173ffffffffffffffffffffffffffffffffffffffff1603611d75576040517f08c379a0000000000000000000000000000000000000000000000000000000008152600401611d6c90613da4565b60405180910390fd5b611d7e81612511565b50565b600080600b8481548110611d9857611d976136db565b5b90600052602060002090600502016002015490506000600b8581548110611dc257611dc16136db565b5b906000526020600020906005020160010160009054906101000a900473ffffffffffffffffffffffffffffffffffffffff1690508382611e029190613bb8565b3414611e43576040517f08c379a0000000000000000000000000000000000000000000000000000000008152600401611e3a9061377c565b60405180910390fd5b600960009054906101000a900473ffffffffffffffffffffffffffffffffffffffff1673ffffffffffffffffffffffffffffffffffffffff166108fc600a549081150290604051600060405180830381858888f19350505050158015611ead573d6000803e3d6000fd5b508073ffffffffffffffffffffffffffffffffffffffff166108fc349081150290604051600060405180830381858888f19350505050158015611ef4573d6000803e3d6000fd5b508073ffffffffffffffffffffffffffffffffffffffff16857fd356b8423ef89ccba8e4f1dbeccc60b41825fd97d432f2e6a6dbd11ae6ecec113385604051611f3e929190613a1a565b60405180910390a360019250505092915050565b60007f01ffc9a7000000000000000000000000000000000000000000000000000000007bffffffffffffffffffffffffffffffffffffffffffffffffffffffff1916827bffffffffffffffffffffffffffffffffffffffffffffffffffffffff1916149050919050565b611fc5816128ff565b612004576040517f08c379a0000000000000000000000000000000000000000000000000000000008152600401611ffb90613b06565b60405180910390fd5b50565b600033905090565b816004600083815260200190815260200160002060006101000a81548173ffffffffffffffffffffffffffffffffffffffff021916908373ffffffffffffffffffffffffffffffffffffffff160217905550808273ffffffffffffffffffffffffffffffffffffffff1661208283611038565b73ffffffffffffffffffffffffffffffffffffffff167f8c5be1e5ebec7d5bd14f71427d1e84f3dd0314c0f7b2291e5b200ac8c7c3b92560405160405180910390a45050565b6000806120d483611038565b90508073ffffffffffffffffffffffffffffffffffffffff168473ffffffffffffffffffffffffffffffffffffffff16148061211657506121158185611c6a565b5b8061215457508373ffffffffffffffffffffffffffffffffffffffff1661213c8461086b565b73ffffffffffffffffffffffffffffffffffffffff16145b91505092915050565b8273ffffffffffffffffffffffffffffffffffffffff1661217d82611038565b73ffffffffffffffffffffffffffffffffffffffff16146121d3576040517f08c379a00000000000000000000000000000000000000000000000000000000081526004016121ca90613e36565b60405180910390fd5b600073ffffffffffffffffffffffffffffffffffffffff168273ffffffffffffffffffffffffffffffffffffffff1603612242576040517f08c379a000000000000000000000000000000000000000000000000000000000815260040161223990613ec8565b60405180910390fd5b61224f8383836001612940565b8273ffffffffffffffffffffffffffffffffffffffff1661226f82611038565b73ffffffffffffffffffffffffffffffffffffffff16146122c5576040517f08c379a00000000000000000000000000000000000000000000000000000000081526004016122bc90613e36565b60405180910390fd5b6004600082815260200190815260200160002060006101000a81549073ffffffffffffffffffffffffffffffffffffffff02191690556001600360008573ffffffffffffffffffffffffffffffffffffffff1673ffffffffffffffffffffffffffffffffffffffff168152602001908152602001600020600082825403925050819055506001600360008473ffffffffffffffffffffffffffffffffffffffff1673ffffffffffffffffffffffffffffffffffffffff16815260200190815260200160002060008282540192505081905550816002600083815260200190815260200160002060006101000a81548173ffffffffffffffffffffffffffffffffffffffff021916908373ffffffffffffffffffffffffffffffffffffffff160217905550808273ffffffffffffffffffffffffffffffffffffffff168473ffffffffffffffffffffffffffffffffffffffff167fddf252ad1be2c89b69c2b068fc378daa952ba7f163c4a11628f55a4df523b3ef60405160405180910390a46124518383836001612946565b505050565b61245e612007565b73ffffffffffffffffffffffffffffffffffffffff1661247c611489565b73ffffffffffffffffffffffffffffffffffffffff16146124d2576040517f08c379a00000000000000000000000000000000000000000000000000000000081526004016124c990613f34565b60405180910390fd5b565b60006002600083815260200190815260200160002060009054906101000a900473ffffffffffffffffffffffffffffffffffffffff169050919050565b6000600660009054906101000a900473ffffffffffffffffffffffffffffffffffffffff16905081600660006101000a81548173ffffffffffffffffffffffffffffffffffffffff021916908373ffffffffffffffffffffffffffffffffffffffff1602179055508173ffffffffffffffffffffffffffffffffffffffff168173ffffffffffffffffffffffffffffffffffffffff167f8be0079c531659141344cd1fd0a4f28419497f9722a3daafe3b4186f6b6457e060405160405180910390a35050565b8173ffffffffffffffffffffffffffffffffffffffff168373ffffffffffffffffffffffffffffffffffffffff1603612645576040517f08c379a000000000000000000000000000000000000000000000000000000000815260040161263c90613fa0565b60405180910390fd5b80600560008573ffffffffffffffffffffffffffffffffffffffff1673ffffffffffffffffffffffffffffffffffffffff16815260200190815260200160002060008473ffffffffffffffffffffffffffffffffffffffff1673ffffffffffffffffffffffffffffffffffffffff16815260200190815260200160002060006101000a81548160ff0219169083151502179055508173ffffffffffffffffffffffffffffffffffffffff168373ffffffffffffffffffffffffffffffffffffffff167f17307eab39ab6107e8899845ad3d59bd9653f200f220920489ca2b5937696c31836040516127369190612d42565b60405180910390a3505050565b61274e84848461215d565b61275a8484848461294c565b612799576040517f08c379a000000000000000000000000000000000000000000000000000000000815260040161279090614032565b60405180910390fd5b50505050565b6060600780546127ae906134f4565b80601f01602080910402602001604051908101604052809291908181526020018280546127da906134f4565b80156128275780601f106127fc57610100808354040283529160200191612827565b820191906000526020600020905b81548152906001019060200180831161280a57829003601f168201915b5050505050905090565b60606000600161284084612ad3565b01905060008167ffffffffffffffff81111561285f5761285e613297565b5b6040519080825280601f01601f1916602001820160405280156128915781602001600182028036833780820191505090505b509050600082602001820190505b6001156128f4578080600190039150507f3031323334353637383961626364656600000000000000000000000000000000600a86061a8153600a85816128e8576128e7614052565b5b0494506000850361289f575b819350505050919050565b60008073ffffffffffffffffffffffffffffffffffffffff16612921836124d4565b73ffffffffffffffffffffffffffffffffffffffff1614159050919050565b50505050565b50505050565b600061296d8473ffffffffffffffffffffffffffffffffffffffff16612c26565b15612ac6578373ffffffffffffffffffffffffffffffffffffffff1663150b7a02612996612007565b8786866040518563ffffffff1660e01b81526004016129b894939291906140d6565b6020604051808303816000875af19250505080156129f457506040513d601f19601f820116820180604052508101906129f19190614137565b60015b612a76573d8060008114612a24576040519150601f19603f3d011682016040523d82523d6000602084013e612a29565b606091505b506000815103612a6e576040517f08c379a0000000000000000000000000000000000000000000000000000000008152600401612a6590614032565b60405180910390fd5b805181602001fd5b63150b7a0260e01b7bffffffffffffffffffffffffffffffffffffffffffffffffffffffff1916817bffffffffffffffffffffffffffffffffffffffffffffffffffffffff191614915050612acb565b600190505b949350505050565b600080600090507a184f03e93ff9f4daa797ed6e38ed64bf6a1f0100000000000000008310612b31577a184f03e93ff9f4daa797ed6e38ed64bf6a1f0100000000000000008381612b2757612b26614052565b5b0492506040810190505b6d04ee2d6d415b85acef81000000008310612b6e576d04ee2d6d415b85acef81000000008381612b6457612b63614052565b5b0492506020810190505b662386f26fc100008310612b9d57662386f26fc100008381612b9357612b92614052565b5b0492506010810190505b6305f5e1008310612bc6576305f5e1008381612bbc57612bbb614052565b5b0492506008810190505b6127108310612beb576127108381612be157612be0614052565b5b0492506004810190505b60648310612c0e5760648381612c0457612c03614052565b5b0492506002810190505b600a8310612c1d576001810190505b80915050919050565b6000808273ffffffffffffffffffffffffffffffffffffffff163b119050919050565b6040518060a0016040528060008152602001600073ffffffffffffffffffffffffffffffffffffffff1681526020016000815260200160608152602001600081525090565b6000604051905090565b600080fd5b600080fd5b60007fffffffff0000000000000000000000000000000000000000000000000000000082169050919050565b612cd781612ca2565b8114612ce257600080fd5b50565b600081359050612cf481612cce565b92915050565b600060208284031215612d1057612d0f612c98565b5b6000612d1e84828501612ce5565b91505092915050565b60008115159050919050565b612d3c81612d27565b82525050565b6000602082019050612d576000830184612d33565b92915050565b600081519050919050565b600082825260208201905092915050565b60005b83811015612d97578082015181840152602081019050612d7c565b60008484015250505050565b6000601f19601f8301169050919050565b6000612dbf82612d5d565b612dc98185612d68565b9350612dd9818560208601612d79565b612de281612da3565b840191505092915050565b60006020820190508181036000830152612e078184612db4565b905092915050565b6000819050919050565b612e2281612e0f565b8114612e2d57600080fd5b50565b600081359050612e3f81612e19565b92915050565b600060208284031215612e5b57612e5a612c98565b5b6000612e6984828501612e30565b91505092915050565b600073ffffffffffffffffffffffffffffffffffffffff82169050919050565b6000612e9d82612e72565b9050919050565b612ead81612e92565b82525050565b6000602082019050612ec86000830184612ea4565b92915050565b612ed781612e92565b8114612ee257600080fd5b50565b600081359050612ef481612ece565b92915050565b60008060408385031215612f1157612f10612c98565b5b6000612f1f85828601612ee5565b9250506020612f3085828601612e30565b9150509250929050565b600080600060608486031215612f5357612f52612c98565b5b6000612f6186828701612ee5565b9350506020612f7286828701612ee5565b9250506040612f8386828701612e30565b9150509250925092565b612f9681612e0f565b82525050565b6000612fa782612e72565b9050919050565b612fb781612f9c565b82525050565b600060a082019050612fd26000830188612f8d565b612fdf6020830187612fae565b612fec6040830186612f8d565b8181036060830152612ffe8185612db4565b905061300d6080830184612f8d565b9695505050505050565b600081519050919050565b600082825260208201905092915050565b6000819050602082019050919050565b61304c81612e0f565b82525050565b61305b81612f9c565b82525050565b600082825260208201905092915050565b600061307d82612d5d565b6130878185613061565b9350613097818560208601612d79565b6130a081612da3565b840191505092915050565b600060a0830160008301516130c36000860182613043565b5060208301516130d66020860182613052565b5060408301516130e96040860182613043565b50606083015184820360608601526131018282613072565b91505060808301516131166080860182613043565b508091505092915050565b600061312d83836130ab565b905092915050565b6000602082019050919050565b600061314d82613017565b6131578185613022565b93508360208202850161316985613033565b8060005b858110156131a557848403895281516131868582613121565b945061319183613135565b925060208a0199505060018101905061316d565b50829750879550505050505092915050565b600060208201905081810360008301526131d18184613142565b905092915050565b6000602082840312156131ef576131ee612c98565b5b60006131fd84828501612ee5565b91505092915050565b600060208201905061321b6000830184612f8d565b92915050565b61322a81612d27565b811461323557600080fd5b50565b60008135905061324781613221565b92915050565b6000806040838503121561326457613263612c98565b5b600061327285828601612ee5565b925050602061328385828601613238565b9150509250929050565b600080fd5b600080fd5b7f4e487b7100000000000000000000000000000000000000000000000000000000600052604160045260246000fd5b6132cf82612da3565b810181811067ffffffffffffffff821117156132ee576132ed613297565b5b80604052505050565b6000613301612c8e565b905061330d82826132c6565b919050565b600067ffffffffffffffff82111561332d5761332c613297565b5b61333682612da3565b9050602081019050919050565b82818337600083830152505050565b600061336561336084613312565b6132f7565b90508281526020810184848401111561338157613380613292565b5b61338c848285613343565b509392505050565b600082601f8301126133a9576133a861328d565b5b81356133b9848260208601613352565b91505092915050565b600080600080608085870312156133dc576133db612c98565b5b60006133ea87828801612ee5565b94505060206133fb87828801612ee5565b935050604061340c87828801612e30565b925050606085013567ffffffffffffffff81111561342d5761342c612c9d565b5b61343987828801613394565b91505092959194509250565b6000806040838503121561345c5761345b612c98565b5b600061346a85828601612e30565b925050602061347b85828601612e30565b9150509250929050565b6000806040838503121561349c5761349b612c98565b5b60006134aa85828601612ee5565b92505060206134bb85828601612ee5565b9150509250929050565b7f4e487b7100000000000000000000000000000000000000000000000000000000600052602260045260246000fd5b6000600282049050600182168061350c57607f821691505b60208210810361351f5761351e6134c5565b5b50919050565b7f4552433732313a20617070726f76616c20746f2063757272656e74206f776e6560008201527f7200000000000000000000000000000000000000000000000000000000000000602082015250565b6000613581602183612d68565b915061358c82613525565b604082019050919050565b600060208201905081810360008301526135b081613574565b9050919050565b7f4552433732313a20617070726f76652063616c6c6572206973206e6f7420746f60008201527f6b656e206f776e6572206f7220617070726f76656420666f7220616c6c000000602082015250565b6000613613603d83612d68565b915061361e826135b7565b604082019050919050565b6000602082019050818103600083015261364281613606565b9050919050565b7f4552433732313a2063616c6c6572206973206e6f7420746f6b656e206f776e6560008201527f72206f7220617070726f76656400000000000000000000000000000000000000602082015250565b60006136a5602d83612d68565b91506136b082613649565b604082019050919050565b600060208201905081810360008301526136d481613698565b9050919050565b7f4e487b7100000000000000000000000000000000000000000000000000000000600052603260045260246000fd5b7f506c656173652073656e64207468652061736b696e6720707269636520696e2060008201527f6f7264657220746f20636f6d706c657465207468652070757263686173650000602082015250565b6000613766603e83612d68565b91506137718261370a565b604082019050919050565b6000602082019050818103600083015261379581613759565b9050919050565b60008190508160005260206000209050919050565b60006020601f8301049050919050565b600082821b905092915050565b6000600883026137fe7fffffffffffffffffffffffffffffffffffffffffffffffffffffffffffffffff826137c1565b61380886836137c1565b95508019841693508086168417925050509392505050565b6000819050919050565b600061384561384061383b84612e0f565b613820565b612e0f565b9050919050565b6000819050919050565b61385f8361382a565b61387361386b8261384c565b8484546137ce565b825550505050565b600090565b61388861387b565b613893818484613856565b505050565b5b818110156138b7576138ac600082613880565b600181019050613899565b5050565b601f8211156138fc576138cd8161379c565b6138d6846137b1565b810160208510156138e5578190505b6138f96138f1856137b1565b830182613898565b50505b505050565b600082821c905092915050565b600061391f60001984600802613901565b1980831691505092915050565b6000613938838361390e565b9150826002028217905092915050565b61395182612d5d565b67ffffffffffffffff81111561396a57613969613297565b5b61397482546134f4565b61397f8282856138bb565b600060209050601f8311600181146139b257600084156139a0578287015190505b6139aa858261392c565b865550613a12565b601f1984166139c08661379c565b60005b828110156139e8578489015182556001820191506020850194506020810190506139c3565b86831015613a055784890151613a01601f89168261390e565b8355505b6001600288020188555050505b505050505050565b6000604082019050613a2f6000830185612ea4565b613a3c6020830184612f8d565b9392505050565b7f4e487b7100000000000000000000000000000000000000000000000000000000600052601160045260246000fd5b6000613a7d82612e0f565b91507fffffffffffffffffffffffffffffffffffffffffffffffffffffffffffffffff8203613aaf57613aae613a43565b5b600182019050919050565b7f4552433732313a20696e76616c696420746f6b656e2049440000000000000000600082015250565b6000613af0601883612d68565b9150613afb82613aba565b602082019050919050565b60006020820190508181036000830152613b1f81613ae3565b9050919050565b7f4552433732313a2061646472657373207a65726f206973206e6f74206120766160008201527f6c6964206f776e65720000000000000000000000000000000000000000000000602082015250565b6000613b82602983612d68565b9150613b8d82613b26565b604082019050919050565b60006020820190508181036000830152613bb181613b75565b9050919050565b6000613bc382612e0f565b9150613bce83612e0f565b9250828202613bdc81612e0f565b91508282048414831517613bf357613bf2613a43565b5b5092915050565b600081905092915050565b6000613c1082612d5d565b613c1a8185613bfa565b9350613c2a818560208601612d79565b80840191505092915050565b6000613c428285613c05565b9150613c4e8284613c05565b91508190509392505050565b7f4d7573742070617920726f79616c747900000000000000000000000000000000600082015250565b6000613c90601083612d68565b9150613c9b82613c5a565b602082019050919050565b60006020820190508181036000830152613cbf81613c83565b9050919050565b7f5072696365206d7573742062652067726561746572207468616e207a65726f00600082015250565b6000613cfc601f83612d68565b9150613d0782613cc6565b602082019050919050565b60006020820190508181036000830152613d2b81613cef565b9050919050565b7f4f776e61626c653a206e6577206f776e657220697320746865207a65726f206160008201527f6464726573730000000000000000000000000000000000000000000000000000602082015250565b6000613d8e602683612d68565b9150613d9982613d32565b604082019050919050565b60006020820190508181036000830152613dbd81613d81565b9050919050565b7f4552433732313a207472616e736665722066726f6d20696e636f72726563742060008201527f6f776e6572000000000000000000000000000000000000000000000000000000602082015250565b6000613e20602583612d68565b9150613e2b82613dc4565b604082019050919050565b60006020820190508181036000830152613e4f81613e13565b9050919050565b7f4552433732313a207472616e7366657220746f20746865207a65726f2061646460008201527f7265737300000000000000000000000000000000000000000000000000000000602082015250565b6000613eb2602483612d68565b9150613ebd82613e56565b604082019050919050565b60006020820190508181036000830152613ee181613ea5565b9050919050565b7f4f776e61626c653a2063616c6c6572206973206e6f7420746865206f776e6572600082015250565b6000613f1e602083612d68565b9150613f2982613ee8565b602082019050919050565b60006020820190508181036000830152613f4d81613f11565b9050919050565b7f4552433732313a20617070726f766520746f2063616c6c657200000000000000600082015250565b6000613f8a601983612d68565b9150613f9582613f54565b602082019050919050565b60006020820190508181036000830152613fb981613f7d565b9050919050565b7f4552433732313a207472616e7366657220746f206e6f6e20455243373231526560008201527f63656976657220696d706c656d656e7465720000000000000000000000000000602082015250565b600061401c603283612d68565b915061402782613fc0565b604082019050919050565b6000602082019050818103600083015261404b8161400f565b9050919050565b7f4e487b7100000000000000000000000000000000000000000000000000000000600052601260045260246000fd5b600081519050919050565b600082825260208201905092915050565b60006140a882614081565b6140b2818561408c565b93506140c2818560208601612d79565b6140cb81612da3565b840191505092915050565b60006080820190506140eb6000830187612ea4565b6140f86020830186612ea4565b6141056040830185612f8d565b8181036060830152614117818461409d565b905095945050505050565b60008151905061413181612cce565b92915050565b60006020828403121561414d5761414c612c98565b5b600061415b84828501614122565b9150509291505056fea2646970667358221220a71aad47bc6340f573f2faf87873328d756faffe56b4f7de8d11d921ef0ca79364736f6c6343000811003368747470733a2f2f6261667962656964686a6a626a6f6e7971636168757a6c707437737a6e6d683478726c62737061336773746f70356f34376c3667736961666665652e697066732e6e667473746f726167652e6c696e6b2f",
  "linkReferences": {},
  "deployedLinkReferences": {}
}