{
  "_format": "hh-sol-artifact-1",
  "contractName": "MusicNFTMarketplace",
  "sourceName": "contracts/MusicNFTMarketplace.sol",
  "abi": [
    {
      "inputs": [
        {
          "internalType": "uint256",
          "name": "_royaltyFee",
          "type": "uint256"
        },
        {
          "internalType": "address",
          "name": "_artist",
          "type": "address"
        },
        {
          "internalType": "uint256[]",
          "name": "_prices",
          "type": "uint256[]"
        }
      ],
      "stateMutability": "payable",
      "type": "constructor"
    },
    {
      "anonymous": false,
      "inputs": [
        {
          "indexed": true,
          "internalType": "address",
          "name": "owner",
          "type": "address"
        },
        {
          "indexed": true,
          "internalType": "address",
          "name": "approved",
          "type": "address"
        },
        {
          "indexed": true,
          "internalType": "uint256",
          "name": "tokenId",
          "type": "uint256"
        }
      ],
      "name": "Approval",
      "type": "event"
    },
    {
      "anonymous": false,
      "inputs": [
        {
          "indexed": true,
          "internalType": "address",
          "name": "owner",
          "type": "address"
        },
        {
          "indexed": true,
          "internalType": "address",
          "name": "operator",
          "type": "address"
        },
        {
          "indexed": false,
          "internalType": "bool",
          "name": "approved",
          "type": "bool"
        }
      ],
      "name": "ApprovalForAll",
      "type": "event"
    },
    {
      "anonymous": false,
      "inputs": [
        {
          "indexed": true,
          "internalType": "uint256",
          "name": "tokenId",
          "type": "uint256"
        },
        {
          "indexed": true,
          "internalType": "address",
          "name": "seller",
          "type": "address"
        },
        {
          "indexed": false,
          "internalType": "address",
          "name": "buyer",
          "type": "address"
        },
        {
          "indexed": false,
          "internalType": "uint256",
          "name": "price",
          "type": "uint256"
        }
      ],
      "name": "MarketItemBought",
      "type": "event"
    },
    {
      "anonymous": false,
      "inputs": [
        {
          "indexed": true,
          "internalType": "uint256",
          "name": "tokenId",
          "type": "uint256"
        },
        {
          "indexed": true,
          "internalType": "address",
          "name": "seller",
          "type": "address"
        },
        {
          "indexed": false,
          "internalType": "uint256",
          "name": "price",
          "type": "uint256"
        }
      ],
      "name": "MarketItemRelisted",
      "type": "event"
    },
    {
      "anonymous": false,
      "inputs": [
        {
          "indexed": true,
          "internalType": "address",
          "name": "previousOwner",
          "type": "address"
        },
        {
          "indexed": true,
          "internalType": "address",
          "name": "newOwner",
          "type": "address"
        }
      ],
      "name": "OwnershipTransferred",
      "type": "event"
    },
    {
      "anonymous": false,
      "inputs": [
        {
          "indexed": true,
          "internalType": "address",
          "name": "from",
          "type": "address"
        },
        {
          "indexed": true,
          "internalType": "address",
          "name": "to",
          "type": "address"
        },
        {
          "indexed": true,
          "internalType": "uint256",
          "name": "tokenId",
          "type": "uint256"
        }
      ],
      "name": "Transfer",
      "type": "event"
    },
    {
      "inputs": [
        {
          "internalType": "address",
          "name": "to",
          "type": "address"
        },
        {
          "internalType": "uint256",
          "name": "tokenId",
          "type": "uint256"
        }
      ],
      "name": "approve",
      "outputs": [],
      "stateMutability": "nonpayable",
      "type": "function"
    },
    {
      "inputs": [],
      "name": "artist",
      "outputs": [
        {
          "internalType": "address",
          "name": "",
          "type": "address"
        }
      ],
      "stateMutability": "view",
      "type": "function"
    },
    {
      "inputs": [
        {
          "internalType": "address",
          "name": "owner",
          "type": "address"
        }
      ],
      "name": "balanceOf",
      "outputs": [
        {
          "internalType": "uint256",
          "name": "",
          "type": "uint256"
        }
      ],
      "stateMutability": "view",
      "type": "function"
    },
    {
      "inputs": [],
      "name": "baseExtension",
      "outputs": [
        {
          "internalType": "string",
          "name": "",
          "type": "string"
        }
      ],
      "stateMutability": "view",
      "type": "function"
    },
    {
      "inputs": [],
      "name": "baseURI",
      "outputs": [
        {
          "internalType": "string",
          "name": "",
          "type": "string"
        }
      ],
      "stateMutability": "view",
      "type": "function"
    },
    {
      "inputs": [
        {
          "internalType": "uint256",
          "name": "_tokenId",
          "type": "uint256"
        }
      ],
      "name": "buyToken",
      "outputs": [],
      "stateMutability": "payable",
      "type": "function"
    },
    {
      "inputs": [
        {
          "internalType": "uint256",
          "name": "_tokenId",
          "type": "uint256"
        },
        {
          "internalType": "uint256",
          "name": "_days",
          "type": "uint256"
        }
      ],
      "name": "extendTime",
      "outputs": [
        {
          "internalType": "bool",
          "name": "",
          "type": "bool"
        }
      ],
      "stateMutability": "payable",
      "type": "function"
    },
    {
      "inputs": [],
      "name": "getAllUnsoldTokens",
      "outputs": [
        {
          "components": [
            {
              "internalType": "uint256",
              "name": "tokenId",
              "type": "uint256"
            },
            {
              "internalType": "address payable",
              "name": "seller",
              "type": "address"
            },
            {
              "internalType": "uint256",
              "name": "price",
              "type": "uint256"
            },
            {
              "internalType": "string",
              "name": "status",
              "type": "string"
            },
            {
              "internalType": "uint256",
              "name": "rentDays",
              "type": "uint256"
            }
          ],
          "internalType": "struct MusicNFTMarketplace.MarketItem[]",
          "name": "",
          "type": "tuple[]"
        }
      ],
      "stateMutability": "view",
      "type": "function"
    },
    {
      "inputs": [
        {
          "internalType": "uint256",
          "name": "tokenId",
          "type": "uint256"
        }
      ],
      "name": "getApproved",
      "outputs": [
        {
          "internalType": "address",
          "name": "",
          "type": "address"
        }
      ],
      "stateMutability": "view",
      "type": "function"
    },
    {
      "inputs": [],
      "name": "getMyTokens",
      "outputs": [
        {
          "components": [
            {
              "internalType": "uint256",
              "name": "tokenId",
              "type": "uint256"
            },
            {
              "internalType": "address payable",
              "name": "seller",
              "type": "address"
            },
            {
              "internalType": "uint256",
              "name": "price",
              "type": "uint256"
            },
            {
              "internalType": "string",
              "name": "status",
              "type": "string"
            },
            {
              "internalType": "uint256",
              "name": "rentDays",
              "type": "uint256"
            }
          ],
          "internalType": "struct MusicNFTMarketplace.MarketItem[]",
          "name": "",
          "type": "tuple[]"
        }
      ],
      "stateMutability": "view",
      "type": "function"
    },
    {
      "inputs": [
        {
          "internalType": "address",
          "name": "owner",
          "type": "address"
        },
        {
          "internalType": "address",
          "name": "operator",
          "type": "address"
        }
      ],
      "name": "isApprovedForAll",
      "outputs": [
        {
          "internalType": "bool",
          "name": "",
          "type": "bool"
        }
      ],
      "stateMutability": "view",
      "type": "function"
    },
    {
      "inputs": [
        {
          "internalType": "uint256",
          "name": "_tokenId",
          "type": "uint256"
        },
        {
          "internalType": "uint256",
          "name": "_days",
          "type": "uint256"
        }
      ],
      "name": "lockToken",
      "outputs": [
        {
          "internalType": "bool",
          "name": "",
          "type": "bool"
        }
      ],
      "stateMutability": "payable",
      "type": "function"
    },
    {
      "inputs": [
        {
          "internalType": "uint256",
          "name": "",
          "type": "uint256"
        }
      ],
      "name": "marketItems",
      "outputs": [
        {
          "internalType": "uint256",
          "name": "tokenId",
          "type": "uint256"
        },
        {
          "internalType": "address payable",
          "name": "seller",
          "type": "address"
        },
        {
          "internalType": "uint256",
          "name": "price",
          "type": "uint256"
        },
        {
          "internalType": "string",
          "name": "status",
          "type": "string"
        },
        {
          "internalType": "uint256",
          "name": "rentDays",
          "type": "uint256"
        }
      ],
      "stateMutability": "view",
      "type": "function"
    },
    {
      "inputs": [],
      "name": "name",
      "outputs": [
        {
          "internalType": "string",
          "name": "",
          "type": "string"
        }
      ],
      "stateMutability": "view",
      "type": "function"
    },
    {
      "inputs": [],
      "name": "owner",
      "outputs": [
        {
          "internalType": "address",
          "name": "",
          "type": "address"
        }
      ],
      "stateMutability": "view",
      "type": "function"
    },
    {
      "inputs": [
        {
          "internalType": "uint256",
          "name": "tokenId",
          "type": "uint256"
        }
      ],
      "name": "ownerOf",
      "outputs": [
        {
          "internalType": "address",
          "name": "",
          "type": "address"
        }
      ],
      "stateMutability": "view",
      "type": "function"
    },
    {
      "inputs": [],
      "name": "renounceOwnership",
      "outputs": [],
      "stateMutability": "nonpayable",
      "type": "function"
    },
    {
      "inputs": [
        {
          "internalType": "uint256",
          "name": "_tokenId",
          "type": "uint256"
        },
        {
          "internalType": "uint256",
          "name": "_days",
          "type": "uint256"
        }
      ],
      "name": "rentToken",
      "outputs": [
        {
          "internalType": "bool",
          "name": "",
          "type": "bool"
        }
      ],
      "stateMutability": "payable",
      "type": "function"
    },
    {
      "inputs": [
        {
          "internalType": "uint256",
          "name": "_tokenId",
          "type": "uint256"
        },
        {
          "internalType": "uint256",
          "name": "_price",
          "type": "uint256"
        }
      ],
      "name": "resellToken",
      "outputs": [],
      "stateMutability": "payable",
      "type": "function"
    },
    {
      "inputs": [],
      "name": "royaltyFee",
      "outputs": [
        {
          "internalType": "uint256",
          "name": "",
          "type": "uint256"
        }
      ],
      "stateMutability": "view",
      "type": "function"
    },
    {
      "inputs": [
        {
          "internalType": "address",
          "name": "from",
          "type": "address"
        },
        {
          "internalType": "address",
          "name": "to",
          "type": "address"
        },
        {
          "internalType": "uint256",
          "name": "tokenId",
          "type": "uint256"
        }
      ],
      "name": "safeTransferFrom",
      "outputs": [],
      "stateMutability": "nonpayable",
      "type": "function"
    },
    {
      "inputs": [
        {
          "internalType": "address",
          "name": "from",
          "type": "address"
        },
        {
          "internalType": "address",
          "name": "to",
          "type": "address"
        },
        {
          "internalType": "uint256",
          "name": "tokenId",
          "type": "uint256"
        },
        {
          "internalType": "bytes",
          "name": "data",
          "type": "bytes"
        }
      ],
      "name": "safeTransferFrom",
      "outputs": [],
      "stateMutability": "nonpayable",
      "type": "function"
    },
    {
      "inputs": [
        {
          "internalType": "address",
          "name": "operator",
          "type": "address"
        },
        {
          "internalType": "bool",
          "name": "approved",
          "type": "bool"
        }
      ],
      "name": "setApprovalForAll",
      "outputs": [],
      "stateMutability": "nonpayable",
      "type": "function"
    },
    {
      "inputs": [
        {
          "internalType": "bytes4",
          "name": "interfaceId",
          "type": "bytes4"
        }
      ],
      "name": "supportsInterface",
      "outputs": [
        {
          "internalType": "bool",
          "name": "",
          "type": "bool"
        }
      ],
      "stateMutability": "view",
      "type": "function"
    },
    {
      "inputs": [],
      "name": "symbol",
      "outputs": [
        {
          "internalType": "string",
          "name": "",
          "type": "string"
        }
      ],
      "stateMutability": "view",
      "type": "function"
    },
    {
      "inputs": [
        {
          "internalType": "uint256",
          "name": "tokenId",
          "type": "uint256"
        }
      ],
      "name": "tokenURI",
      "outputs": [
        {
          "internalType": "string",
          "name": "",
          "type": "string"
        }
      ],
      "stateMutability": "view",
      "type": "function"
    },
    {
      "inputs": [
        {
          "internalType": "address",
          "name": "from",
          "type": "address"
        },
        {
          "internalType": "address",
          "name": "to",
          "type": "address"
        },
        {
          "internalType": "uint256",
          "name": "tokenId",
          "type": "uint256"
        }
      ],
      "name": "transferFrom",
      "outputs": [],
      "stateMutability": "nonpayable",
      "type": "function"
    },
    {
      "inputs": [
        {
          "internalType": "address",
          "name": "newOwner",
          "type": "address"
        }
      ],
      "name": "transferOwnership",
      "outputs": [],
      "stateMutability": "nonpayable",
      "type": "function"
    },
    {
      "inputs": [
        {
          "internalType": "uint256",
          "name": "_royaltyFee",
          "type": "uint256"
        }
      ],
      "name": "updateRoyaltyFee",
      "outputs": [],
      "stateMutability": "nonpayable",
      "type": "function"
    }
  ],
  "bytecode": "0x6080604052604051806080016040528060598152602001620051fb60599139600790816200002e9190620009ce565b506040518060400160405280600581526020017f2e6a736f6e00000000000000000000000000000000000000000000000000000081525060089081620000759190620009ce565b50604051620052543803806200525483398181016040528101906200009b919062000ca5565b6040518060400160405280600681526020017f44417070466900000000000000000000000000000000000000000000000000008152506040518060400160405280600481526020017f44415050000000000000000000000000000000000000000000000000000000008152508160009081620001189190620009ce565b5080600190816200012a9190620009ce565b5050506200014d62000141620003ae60201b60201c565b620003b660201b60201c565b348382516200015d919062000d4f565b1115620001a1576040517f08c379a0000000000000000000000000000000000000000000000000000000008152600401620001989062000e47565b60405180910390fd5b82600a8190555081600960006101000a81548173ffffffffffffffffffffffffffffffffffffffff021916908373ffffffffffffffffffffffffffffffffffffffff16021790555060005b81518160ff161015620003a4576000828260ff168151811062000214576200021362000e69565b5b6020026020010151116200025f576040517f08c379a0000000000000000000000000000000000000000000000000000000008152600401620002569062000ee8565b60405180910390fd5b62000274308260ff166200047c60201b60201c565b600b6040518060a001604052808360ff1681526020013373ffffffffffffffffffffffffffffffffffffffff168152602001848460ff1681518110620002bf57620002be62000e69565b5b60200260200101518152602001604051806020016040528060008152508152602001600081525090806001815401808255809150506001900390600052602060002090600502016000909190919091506000820151816000015560208201518160010160006101000a81548173ffffffffffffffffffffffffffffffffffffffff021916908373ffffffffffffffffffffffffffffffffffffffff160217905550604082015181600201556060820151816003019081620003819190620009ce565b5060808201518160040155505080806200039b9062000f17565b915050620001ec565b5050505062001029565b600033905090565b6000600660009054906101000a900473ffffffffffffffffffffffffffffffffffffffff16905081600660006101000a81548173ffffffffffffffffffffffffffffffffffffffff021916908373ffffffffffffffffffffffffffffffffffffffff1602179055508173ffffffffffffffffffffffffffffffffffffffff168173ffffffffffffffffffffffffffffffffffffffff167f8be0079c531659141344cd1fd0a4f28419497f9722a3daafe3b4186f6b6457e060405160405180910390a35050565b600073ffffffffffffffffffffffffffffffffffffffff168273ffffffffffffffffffffffffffffffffffffffff1603620004ee576040517f08c379a0000000000000000000000000000000000000000000000000000000008152600401620004e59062000f95565b60405180910390fd5b620004ff81620006c260201b60201c565b1562000542576040517f08c379a0000000000000000000000000000000000000000000000000000000008152600401620005399062001007565b60405180910390fd5b620005586000838360016200070b60201b60201c565b6200056981620006c260201b60201c565b15620005ac576040517f08c379a0000000000000000000000000000000000000000000000000000000008152600401620005a39062001007565b60405180910390fd5b6001600360008473ffffffffffffffffffffffffffffffffffffffff1673ffffffffffffffffffffffffffffffffffffffff16815260200190815260200160002060008282540192505081905550816002600083815260200190815260200160002060006101000a81548173ffffffffffffffffffffffffffffffffffffffff021916908373ffffffffffffffffffffffffffffffffffffffff160217905550808273ffffffffffffffffffffffffffffffffffffffff16600073ffffffffffffffffffffffffffffffffffffffff167fddf252ad1be2c89b69c2b068fc378daa952ba7f163c4a11628f55a4df523b3ef60405160405180910390a4620006be6000838360016200071160201b60201c565b5050565b60008073ffffffffffffffffffffffffffffffffffffffff16620006ec836200071760201b60201c565b73ffffffffffffffffffffffffffffffffffffffff1614159050919050565b50505050565b50505050565b60006002600083815260200190815260200160002060009054906101000a900473ffffffffffffffffffffffffffffffffffffffff169050919050565b600081519050919050565b7f4e487b7100000000000000000000000000000000000000000000000000000000600052604160045260246000fd5b7f4e487b7100000000000000000000000000000000000000000000000000000000600052602260045260246000fd5b60006002820490506001821680620007d657607f821691505b602082108103620007ec57620007eb6200078e565b5b50919050565b60008190508160005260206000209050919050565b60006020601f8301049050919050565b600082821b905092915050565b600060088302620008567fffffffffffffffffffffffffffffffffffffffffffffffffffffffffffffffff8262000817565b62000862868362000817565b95508019841693508086168417925050509392505050565b6000819050919050565b6000819050919050565b6000620008af620008a9620008a3846200087a565b62000884565b6200087a565b9050919050565b6000819050919050565b620008cb836200088e565b620008e3620008da82620008b6565b84845462000824565b825550505050565b600090565b620008fa620008eb565b62000907818484620008c0565b505050565b5b818110156200092f5762000923600082620008f0565b6001810190506200090d565b5050565b601f8211156200097e576200094881620007f2565b620009538462000807565b8101602085101562000963578190505b6200097b620009728562000807565b8301826200090c565b50505b505050565b600082821c905092915050565b6000620009a36000198460080262000983565b1980831691505092915050565b6000620009be838362000990565b9150826002028217905092915050565b620009d98262000754565b67ffffffffffffffff811115620009f557620009f46200075f565b5b62000a018254620007bd565b62000a0e82828562000933565b600060209050601f83116001811462000a46576000841562000a31578287015190505b62000a3d8582620009b0565b86555062000aad565b601f19841662000a5686620007f2565b60005b8281101562000a805784890151825560018201915060208501945060208101905062000a59565b8683101562000aa0578489015162000a9c601f89168262000990565b8355505b6001600288020188555050505b505050505050565b6000604051905090565b600080fd5b600080fd5b62000ad4816200087a565b811462000ae057600080fd5b50565b60008151905062000af48162000ac9565b92915050565b600073ffffffffffffffffffffffffffffffffffffffff82169050919050565b600062000b278262000afa565b9050919050565b62000b398162000b1a565b811462000b4557600080fd5b50565b60008151905062000b598162000b2e565b92915050565b600080fd5b6000601f19601f8301169050919050565b62000b808262000b64565b810181811067ffffffffffffffff8211171562000ba25762000ba16200075f565b5b80604052505050565b600062000bb762000ab5565b905062000bc5828262000b75565b919050565b600067ffffffffffffffff82111562000be85762000be76200075f565b5b602082029050602081019050919050565b600080fd5b600062000c1562000c0f8462000bca565b62000bab565b9050808382526020820190506020840283018581111562000c3b5762000c3a62000bf9565b5b835b8181101562000c68578062000c53888262000ae3565b84526020840193505060208101905062000c3d565b5050509392505050565b600082601f83011262000c8a5762000c8962000b5f565b5b815162000c9c84826020860162000bfe565b91505092915050565b60008060006060848603121562000cc15762000cc062000abf565b5b600062000cd18682870162000ae3565b935050602062000ce48682870162000b48565b925050604084015167ffffffffffffffff81111562000d085762000d0762000ac4565b5b62000d168682870162000c72565b9150509250925092565b7f4e487b7100000000000000000000000000000000000000000000000000000000600052601160045260246000fd5b600062000d5c826200087a565b915062000d69836200087a565b925082820262000d79816200087a565b9150828204841483151762000d935762000d9262000d20565b5b5092915050565b600082825260208201905092915050565b7f4465706c6f796572206d7573742070617920726f79616c74792066656520666f60008201527f72206561636820746f6b656e206c6973746564206f6e20746865206d61726b6560208201527f74706c6163650000000000000000000000000000000000000000000000000000604082015250565b600062000e2f60468362000d9a565b915062000e3c8262000dab565b606082019050919050565b6000602082019050818103600083015262000e628162000e20565b9050919050565b7f4e487b7100000000000000000000000000000000000000000000000000000000600052603260045260246000fd5b7f5072696365206d7573742062652067726561746572207468616e203000000000600082015250565b600062000ed0601c8362000d9a565b915062000edd8262000e98565b602082019050919050565b6000602082019050818103600083015262000f038162000ec1565b9050919050565b600060ff82169050919050565b600062000f248262000f0a565b915060ff820362000f3a5762000f3962000d20565b5b600182019050919050565b7f4552433732313a206d696e7420746f20746865207a65726f2061646472657373600082015250565b600062000f7d60208362000d9a565b915062000f8a8262000f45565b602082019050919050565b6000602082019050818103600083015262000fb08162000f6e565b9050919050565b7f4552433732313a20746f6b656e20616c7265616479206d696e74656400000000600082015250565b600062000fef601c8362000d9a565b915062000ffc8262000fb7565b602082019050919050565b60006020820190508181036000830152620010228162000fe0565b9050919050565b6141c280620010396000396000f3fe6080604052600436106101c25760003560e01c8063715018a6116100f7578063baa3411011610095578063e219fc7511610064578063e219fc7514610645578063e985e9c514610661578063f2fde38b1461069e578063f7ccc184146106c7576101c2565b8063baa341101461057d578063c6682862146105ad578063c8144586146105d8578063c87b56dd14610608576101c2565b806395d89b41116100d157806395d89b41146104d5578063a22cb46514610500578063b88d4fde14610529578063b8997a9714610552576101c2565b8063715018a614610468578063767dd0761461047f5780638da5cb5b146104aa576101c2565b806343bc1612116101645780635b3b136a1161013e5780635b3b136a146103985780636352211e146103c35780636c0360eb1461040057806370a082311461042b576101c2565b806343bc1612146103035780634e83be471461032e57806351f28e1414610357576101c2565b8063095ea7b3116101a0578063095ea7b31461026c57806323b872dd146102955780632d296bf1146102be57806342842e0e146102da576101c2565b806301ffc9a7146101c757806306fdde0314610204578063081812fc1461022f575b600080fd5b3480156101d357600080fd5b506101ee60048036038101906101e99190612cee565b6106f7565b6040516101fb9190612d36565b60405180910390f35b34801561021057600080fd5b506102196107d9565b6040516102269190612de1565b60405180910390f35b34801561023b57600080fd5b5061025660048036038101906102519190612e39565b61086b565b6040516102639190612ea7565b60405180910390f35b34801561027857600080fd5b50610293600480360381019061028e9190612eee565b6108b1565b005b3480156102a157600080fd5b506102bc60048036038101906102b79190612f2e565b6109c8565b005b6102d860048036038101906102d39190612e39565b610a28565b005b3480156102e657600080fd5b5061030160048036038101906102fc9190612f2e565b610cbe565b005b34801561030f57600080fd5b50610318610cde565b6040516103259190612ea7565b60405180910390f35b34801561033a57600080fd5b5061035560048036038101906103509190612e39565b610d04565b005b34801561036357600080fd5b5061037e60048036038101906103799190612e39565b610d16565b60405161038f959493929190612fb1565b60405180910390f35b3480156103a457600080fd5b506103ad610e04565b6040516103ba91906131ab565b60405180910390f35b3480156103cf57600080fd5b506103ea60048036038101906103e59190612e39565b611038565b6040516103f79190612ea7565b60405180910390f35b34801561040c57600080fd5b506104156110be565b6040516104229190612de1565b60405180910390f35b34801561043757600080fd5b50610452600480360381019061044d91906131cd565b61114c565b60405161045f91906131fa565b60405180910390f35b34801561047457600080fd5b5061047d611203565b005b34801561048b57600080fd5b50610494611217565b6040516104a191906131ab565b60405180910390f35b3480156104b657600080fd5b506104bf611489565b6040516104cc9190612ea7565b60405180910390f35b3480156104e157600080fd5b506104ea6114b3565b6040516104f79190612de1565b60405180910390f35b34801561050c57600080fd5b5061052760048036038101906105229190613241565b611545565b005b34801561053557600080fd5b50610550600480360381019061054b91906133b6565b61155b565b005b34801561055e57600080fd5b506105676115bd565b60405161057491906131fa565b60405180910390f35b61059760048036038101906105929190613439565b6115c3565b6040516105a49190612d36565b60405180910390f35b3480156105b957600080fd5b506105c2611794565b6040516105cf9190612de1565b60405180910390f35b6105f260048036038101906105ed9190613439565b611822565b6040516105ff9190612d36565b60405180910390f35b34801561061457600080fd5b5061062f600480360381019061062a9190612e39565b611a8f565b60405161063c9190612de1565b60405180910390f35b61065f600480360381019061065a9190613439565b611af7565b005b34801561066d57600080fd5b5061068860048036038101906106839190613479565b611c6a565b6040516106959190612d36565b60405180910390f35b3480156106aa57600080fd5b506106c560048036038101906106c091906131cd565b611cfe565b005b6106e160048036038101906106dc9190613439565b611d81565b6040516106ee9190612d36565b60405180910390f35b60007f80ac58cd000000000000000000000000000000000000000000000000000000007bffffffffffffffffffffffffffffffffffffffffffffffffffffffff1916827bffffffffffffffffffffffffffffffffffffffffffffffffffffffff191614806107c257507f5b5e139f000000000000000000000000000000000000000000000000000000007bffffffffffffffffffffffffffffffffffffffffffffffffffffffff1916827bffffffffffffffffffffffffffffffffffffffffffffffffffffffff1916145b806107d257506107d182611f46565b5b9050919050565b6060600080546107e8906134e8565b80601f0160208091040260200160405190810160405280929190818152602001828054610814906134e8565b80156108615780601f1061083657610100808354040283529160200191610861565b820191906000526020600020905b81548152906001019060200180831161084457829003601f168201915b5050505050905090565b600061087682611fb0565b6004600083815260200190815260200160002060009054906101000a900473ffffffffffffffffffffffffffffffffffffffff169050919050565b60006108bc82611038565b90508073ffffffffffffffffffffffffffffffffffffffff168373ffffffffffffffffffffffffffffffffffffffff160361092c576040517f08c379a00000000000000000000000000000000000000000000000000000000081526004016109239061358b565b60405180910390fd5b8073ffffffffffffffffffffffffffffffffffffffff1661094b611ffb565b73ffffffffffffffffffffffffffffffffffffffff16148061097a575061097981610974611ffb565b611c6a565b5b6109b9576040517f08c379a00000000000000000000000000000000000000000000000000000000081526004016109b09061361d565b60405180910390fd5b6109c38383612003565b505050565b6109d96109d3611ffb565b826120bc565b610a18576040517f08c379a0000000000000000000000000000000000000000000000000000000008152600401610a0f906136af565b60405180910390fd5b610a23838383612151565b505050565b6000600b8281548110610a3e57610a3d6136cf565b5b90600052602060002090600502016002015490506000600b8381548110610a6857610a676136cf565b5b906000526020600020906005020160010160009054906101000a900473ffffffffffffffffffffffffffffffffffffffff169050813414610ade576040517f08c379a0000000000000000000000000000000000000000000000000000000008152600401610ad590613770565b60405180910390fd5b6000600b8481548110610af457610af36136cf565b5b906000526020600020906005020160010160006101000a81548173ffffffffffffffffffffffffffffffffffffffff021916908373ffffffffffffffffffffffffffffffffffffffff1602179055506040518060400160405280600381526020017f6275790000000000000000000000000000000000000000000000000000000000815250600b8481548110610b8d57610b8c6136cf565b5b90600052602060002090600502016003019081610baa919061393c565b50610bb6303385612151565b600960009054906101000a900473ffffffffffffffffffffffffffffffffffffffff1673ffffffffffffffffffffffffffffffffffffffff166108fc600a549081150290604051600060405180830381858888f19350505050158015610c20573d6000803e3d6000fd5b508073ffffffffffffffffffffffffffffffffffffffff166108fc349081150290604051600060405180830381858888f19350505050158015610c67573d6000803e3d6000fd5b508073ffffffffffffffffffffffffffffffffffffffff16837fd356b8423ef89ccba8e4f1dbeccc60b41825fd97d432f2e6a6dbd11ae6ecec113385604051610cb1929190613a0e565b60405180910390a3505050565b610cd98383836040518060200160405280600081525061155b565b505050565b600960009054906101000a900473ffffffffffffffffffffffffffffffffffffffff1681565b610d0c61244a565b80600a8190555050565b600b8181548110610d2657600080fd5b90600052602060002090600502016000915090508060000154908060010160009054906101000a900473ffffffffffffffffffffffffffffffffffffffff1690806002015490806003018054610d7b906134e8565b80601f0160208091040260200160405190810160405280929190818152602001828054610da7906134e8565b8015610df45780601f10610dc957610100808354040283529160200191610df4565b820191906000526020600020905b815481529060010190602001808311610dd757829003601f168201915b5050505050908060040154905085565b60606000610e113361114c565b905060008167ffffffffffffffff811115610e2f57610e2e61328b565b5b604051908082528060200260200182016040528015610e6857816020015b610e55612c3d565b815260200190600190039081610e4d5790505b509050600080600090505b600b8054905081101561102e573373ffffffffffffffffffffffffffffffffffffffff16610ea082611038565b73ffffffffffffffffffffffffffffffffffffffff160361101b57600b8181548110610ecf57610ece6136cf565b5b90600052602060002090600502016040518060a0016040529081600082015481526020016001820160009054906101000a900473ffffffffffffffffffffffffffffffffffffffff1673ffffffffffffffffffffffffffffffffffffffff1673ffffffffffffffffffffffffffffffffffffffff16815260200160028201548152602001600382018054610f62906134e8565b80601f0160208091040260200160405190810160405280929190818152602001828054610f8e906134e8565b8015610fdb5780601f10610fb057610100808354040283529160200191610fdb565b820191906000526020600020905b815481529060010190602001808311610fbe57829003601f168201915b50505050508152602001600482015481525050838381518110611001576110006136cf565b5b6020026020010181905250818061101790613a66565b9250505b808061102690613a66565b915050610e73565b5081935050505090565b600080611044836124c8565b9050600073ffffffffffffffffffffffffffffffffffffffff168173ffffffffffffffffffffffffffffffffffffffff16036110b5576040517f08c379a00000000000000000000000000000000000000000000000000000000081526004016110ac90613afa565b60405180910390fd5b80915050919050565b600780546110cb906134e8565b80601f01602080910402602001604051908101604052809291908181526020018280546110f7906134e8565b80156111445780601f1061111957610100808354040283529160200191611144565b820191906000526020600020905b81548152906001019060200180831161112757829003601f168201915b505050505081565b60008073ffffffffffffffffffffffffffffffffffffffff168273ffffffffffffffffffffffffffffffffffffffff16036111bc576040517f08c379a00000000000000000000000000000000000000000000000000000000081526004016111b390613b8c565b60405180910390fd5b600360008373ffffffffffffffffffffffffffffffffffffffff1673ffffffffffffffffffffffffffffffffffffffff168152602001908152602001600020549050919050565b61120b61244a565b6112156000612505565b565b606060006112243061114c565b905060008167ffffffffffffffff8111156112425761124161328b565b5b60405190808252806020026020018201604052801561127b57816020015b611268612c3d565b8152602001906001900390816112605790505b509050600080600090505b600b8054905081101561147f57600073ffffffffffffffffffffffffffffffffffffffff16600b82815481106112bf576112be6136cf565b5b906000526020600020906005020160010160009054906101000a900473ffffffffffffffffffffffffffffffffffffffff1673ffffffffffffffffffffffffffffffffffffffff161461146c57600b81815481106113205761131f6136cf565b5b90600052602060002090600502016040518060a0016040529081600082015481526020016001820160009054906101000a900473ffffffffffffffffffffffffffffffffffffffff1673ffffffffffffffffffffffffffffffffffffffff1673ffffffffffffffffffffffffffffffffffffffff168152602001600282015481526020016003820180546113b3906134e8565b80601f01602080910402602001604051908101604052809291908181526020018280546113df906134e8565b801561142c5780601f106114015761010080835404028352916020019161142c565b820191906000526020600020905b81548152906001019060200180831161140f57829003601f168201915b50505050508152602001600482015481525050838381518110611452576114516136cf565b5b6020026020010181905250818061146890613a66565b9250505b808061147790613a66565b915050611286565b5081935050505090565b6000600660009054906101000a900473ffffffffffffffffffffffffffffffffffffffff16905090565b6060600180546114c2906134e8565b80601f01602080910402602001604051908101604052809291908181526020018280546114ee906134e8565b801561153b5780601f106115105761010080835404028352916020019161153b565b820191906000526020600020905b81548152906001019060200180831161151e57829003601f168201915b5050505050905090565b611557611550611ffb565b83836125cb565b5050565b61156c611566611ffb565b836120bc565b6115ab576040517f08c379a00000000000000000000000000000000000000000000000000000000081526004016115a2906136af565b60405180910390fd5b6115b784848484612737565b50505050565b600a5481565b600080600b84815481106115da576115d96136cf565b5b90600052602060002090600502016002015490506000600b8581548110611604576116036136cf565b5b906000526020600020906005020160010160009054906101000a900473ffffffffffffffffffffffffffffffffffffffff16905083826116449190613bac565b3414611685576040517f08c379a000000000000000000000000000000000000000000000000000000000815260040161167c90613770565b60405180910390fd5b600960009054906101000a900473ffffffffffffffffffffffffffffffffffffffff1673ffffffffffffffffffffffffffffffffffffffff166108fc600a549081150290604051600060405180830381858888f193505050501580156116ef573d6000803e3d6000fd5b508073ffffffffffffffffffffffffffffffffffffffff166108fc349081150290604051600060405180830381858888f19350505050158015611736573d6000803e3d6000fd5b508073ffffffffffffffffffffffffffffffffffffffff16857fd356b8423ef89ccba8e4f1dbeccc60b41825fd97d432f2e6a6dbd11ae6ecec113385604051611780929190613a0e565b60405180910390a360019250505092915050565b600880546117a1906134e8565b80601f01602080910402602001604051908101604052809291908181526020018280546117cd906134e8565b801561181a5780601f106117ef5761010080835404028352916020019161181a565b820191906000526020600020905b8154815290600101906020018083116117fd57829003601f168201915b505050505081565b6000808260016118329190613bac565b90506000600b858154811061184a576118496136cf565b5b906000526020600020906005020160010160009054906101000a900473ffffffffffffffffffffffffffffffffffffffff1690506000600b8681548110611894576118936136cf565b5b906000526020600020906005020160010160006101000a81548173ffffffffffffffffffffffffffffffffffffffff021916908373ffffffffffffffffffffffffffffffffffffffff1602179055506040518060400160405280600481526020017f72656e7400000000000000000000000000000000000000000000000000000000815250600b868154811061192d5761192c6136cf565b5b9060005260206000209060050201600301908161194a919061393c565b5083600b86815481106119605761195f6136cf565b5b906000526020600020906005020160040181905550611980303387612151565b600960009054906101000a900473ffffffffffffffffffffffffffffffffffffffff1673ffffffffffffffffffffffffffffffffffffffff166108fc600a549081150290604051600060405180830381858888f193505050501580156119ea573d6000803e3d6000fd5b508073ffffffffffffffffffffffffffffffffffffffff166108fc349081150290604051600060405180830381858888f19350505050158015611a31573d6000803e3d6000fd5b508073ffffffffffffffffffffffffffffffffffffffff16857fd356b8423ef89ccba8e4f1dbeccc60b41825fd97d432f2e6a6dbd11ae6ecec113385604051611a7b929190613a0e565b60405180910390a360019250505092915050565b6060611a9a82611fb0565b6000611aa4612793565b90506000815111611ac45760405180602001604052806000815250611aef565b80611ace84612825565b604051602001611adf929190613c2a565b6040516020818303038152906040525b915050919050565b600a543414611b3b576040517f08c379a0000000000000000000000000000000000000000000000000000000008152600401611b3290613c9a565b60405180910390fd5b60008111611b7e576040517f08c379a0000000000000000000000000000000000000000000000000000000008152600401611b7590613d06565b60405180910390fd5b80600b8381548110611b9357611b926136cf565b5b90600052602060002090600502016002018190555033600b8381548110611bbd57611bbc6136cf565b5b906000526020600020906005020160010160006101000a81548173ffffffffffffffffffffffffffffffffffffffff021916908373ffffffffffffffffffffffffffffffffffffffff160217905550611c17333084612151565b3373ffffffffffffffffffffffffffffffffffffffff16827fb2ba12d2566848b13548a3741edb565b69d3cbce7796959cd67431610207eb1383604051611c5e91906131fa565b60405180910390a35050565b6000600560008473ffffffffffffffffffffffffffffffffffffffff1673ffffffffffffffffffffffffffffffffffffffff16815260200190815260200160002060008373ffffffffffffffffffffffffffffffffffffffff1673ffffffffffffffffffffffffffffffffffffffff16815260200190815260200160002060009054906101000a900460ff16905092915050565b611d0661244a565b600073ffffffffffffffffffffffffffffffffffffffff168173ffffffffffffffffffffffffffffffffffffffff1603611d75576040517f08c379a0000000000000000000000000000000000000000000000000000000008152600401611d6c90613d98565b60405180910390fd5b611d7e81612505565b50565b600080826002611d919190613bac565b90506000600b8581548110611da957611da86136cf565b5b906000526020600020906005020160010160009054906101000a900473ffffffffffffffffffffffffffffffffffffffff169050600960009054906101000a900473ffffffffffffffffffffffffffffffffffffffff1673ffffffffffffffffffffffffffffffffffffffff166108fc600a549081150290604051600060405180830381858888f19350505050158015611e47573d6000803e3d6000fd5b508073ffffffffffffffffffffffffffffffffffffffff166108fc349081150290604051600060405180830381858888f19350505050158015611e8e573d6000803e3d6000fd5b5083600b8681548110611ea457611ea36136cf565b5b906000526020600020906005020160040154611ec09190613db8565b600b8681548110611ed457611ed36136cf565b5b9060005260206000209060050201600401819055508073ffffffffffffffffffffffffffffffffffffffff16857fd356b8423ef89ccba8e4f1dbeccc60b41825fd97d432f2e6a6dbd11ae6ecec113385604051611f32929190613a0e565b60405180910390a360019250505092915050565b60007f01ffc9a7000000000000000000000000000000000000000000000000000000007bffffffffffffffffffffffffffffffffffffffffffffffffffffffff1916827bffffffffffffffffffffffffffffffffffffffffffffffffffffffff1916149050919050565b611fb9816128f3565b611ff8576040517f08c379a0000000000000000000000000000000000000000000000000000000008152600401611fef90613afa565b60405180910390fd5b50565b600033905090565b816004600083815260200190815260200160002060006101000a81548173ffffffffffffffffffffffffffffffffffffffff021916908373ffffffffffffffffffffffffffffffffffffffff160217905550808273ffffffffffffffffffffffffffffffffffffffff1661207683611038565b73ffffffffffffffffffffffffffffffffffffffff167f8c5be1e5ebec7d5bd14f71427d1e84f3dd0314c0f7b2291e5b200ac8c7c3b92560405160405180910390a45050565b6000806120c883611038565b90508073ffffffffffffffffffffffffffffffffffffffff168473ffffffffffffffffffffffffffffffffffffffff16148061210a57506121098185611c6a565b5b8061214857508373ffffffffffffffffffffffffffffffffffffffff166121308461086b565b73ffffffffffffffffffffffffffffffffffffffff16145b91505092915050565b8273ffffffffffffffffffffffffffffffffffffffff1661217182611038565b73ffffffffffffffffffffffffffffffffffffffff16146121c7576040517f08c379a00000000000000000000000000000000000000000000000000000000081526004016121be90613e5e565b60405180910390fd5b600073ffffffffffffffffffffffffffffffffffffffff168273ffffffffffffffffffffffffffffffffffffffff1603612236576040517f08c379a000000000000000000000000000000000000000000000000000000000815260040161222d90613ef0565b60405180910390fd5b6122438383836001612934565b8273ffffffffffffffffffffffffffffffffffffffff1661226382611038565b73ffffffffffffffffffffffffffffffffffffffff16146122b9576040517f08c379a00000000000000000000000000000000000000000000000000000000081526004016122b090613e5e565b60405180910390fd5b6004600082815260200190815260200160002060006101000a81549073ffffffffffffffffffffffffffffffffffffffff02191690556001600360008573ffffffffffffffffffffffffffffffffffffffff1673ffffffffffffffffffffffffffffffffffffffff168152602001908152602001600020600082825403925050819055506001600360008473ffffffffffffffffffffffffffffffffffffffff1673ffffffffffffffffffffffffffffffffffffffff16815260200190815260200160002060008282540192505081905550816002600083815260200190815260200160002060006101000a81548173ffffffffffffffffffffffffffffffffffffffff021916908373ffffffffffffffffffffffffffffffffffffffff160217905550808273ffffffffffffffffffffffffffffffffffffffff168473ffffffffffffffffffffffffffffffffffffffff167fddf252ad1be2c89b69c2b068fc378daa952ba7f163c4a11628f55a4df523b3ef60405160405180910390a4612445838383600161293a565b505050565b612452611ffb565b73ffffffffffffffffffffffffffffffffffffffff16612470611489565b73ffffffffffffffffffffffffffffffffffffffff16146124c6576040517f08c379a00000000000000000000000000000000000000000000000000000000081526004016124bd90613f5c565b60405180910390fd5b565b60006002600083815260200190815260200160002060009054906101000a900473ffffffffffffffffffffffffffffffffffffffff169050919050565b6000600660009054906101000a900473ffffffffffffffffffffffffffffffffffffffff16905081600660006101000a81548173ffffffffffffffffffffffffffffffffffffffff021916908373ffffffffffffffffffffffffffffffffffffffff1602179055508173ffffffffffffffffffffffffffffffffffffffff168173ffffffffffffffffffffffffffffffffffffffff167f8be0079c531659141344cd1fd0a4f28419497f9722a3daafe3b4186f6b6457e060405160405180910390a35050565b8173ffffffffffffffffffffffffffffffffffffffff168373ffffffffffffffffffffffffffffffffffffffff1603612639576040517f08c379a000000000000000000000000000000000000000000000000000000000815260040161263090613fc8565b60405180910390fd5b80600560008573ffffffffffffffffffffffffffffffffffffffff1673ffffffffffffffffffffffffffffffffffffffff16815260200190815260200160002060008473ffffffffffffffffffffffffffffffffffffffff1673ffffffffffffffffffffffffffffffffffffffff16815260200190815260200160002060006101000a81548160ff0219169083151502179055508173ffffffffffffffffffffffffffffffffffffffff168373ffffffffffffffffffffffffffffffffffffffff167f17307eab39ab6107e8899845ad3d59bd9653f200f220920489ca2b5937696c318360405161272a9190612d36565b60405180910390a3505050565b612742848484612151565b61274e84848484612940565b61278d576040517f08c379a00000000000000000000000000000000000000000000000000000000081526004016127849061405a565b60405180910390fd5b50505050565b6060600780546127a2906134e8565b80601f01602080910402602001604051908101604052809291908181526020018280546127ce906134e8565b801561281b5780601f106127f05761010080835404028352916020019161281b565b820191906000526020600020905b8154815290600101906020018083116127fe57829003601f168201915b5050505050905090565b60606000600161283484612ac7565b01905060008167ffffffffffffffff8111156128535761285261328b565b5b6040519080825280601f01601f1916602001820160405280156128855781602001600182028036833780820191505090505b509050600082602001820190505b6001156128e8578080600190039150507f3031323334353637383961626364656600000000000000000000000000000000600a86061a8153600a85816128dc576128db61407a565b5b04945060008503612893575b819350505050919050565b60008073ffffffffffffffffffffffffffffffffffffffff16612915836124c8565b73ffffffffffffffffffffffffffffffffffffffff1614159050919050565b50505050565b50505050565b60006129618473ffffffffffffffffffffffffffffffffffffffff16612c1a565b15612aba578373ffffffffffffffffffffffffffffffffffffffff1663150b7a0261298a611ffb565b8786866040518563ffffffff1660e01b81526004016129ac94939291906140fe565b6020604051808303816000875af19250505080156129e857506040513d601f19601f820116820180604052508101906129e5919061415f565b60015b612a6a573d8060008114612a18576040519150601f19603f3d011682016040523d82523d6000602084013e612a1d565b606091505b506000815103612a62576040517f08c379a0000000000000000000000000000000000000000000000000000000008152600401612a599061405a565b60405180910390fd5b805181602001fd5b63150b7a0260e01b7bffffffffffffffffffffffffffffffffffffffffffffffffffffffff1916817bffffffffffffffffffffffffffffffffffffffffffffffffffffffff191614915050612abf565b600190505b949350505050565b600080600090507a184f03e93ff9f4daa797ed6e38ed64bf6a1f0100000000000000008310612b25577a184f03e93ff9f4daa797ed6e38ed64bf6a1f0100000000000000008381612b1b57612b1a61407a565b5b0492506040810190505b6d04ee2d6d415b85acef81000000008310612b62576d04ee2d6d415b85acef81000000008381612b5857612b5761407a565b5b0492506020810190505b662386f26fc100008310612b9157662386f26fc100008381612b8757612b8661407a565b5b0492506010810190505b6305f5e1008310612bba576305f5e1008381612bb057612baf61407a565b5b0492506008810190505b6127108310612bdf576127108381612bd557612bd461407a565b5b0492506004810190505b60648310612c025760648381612bf857612bf761407a565b5b0492506002810190505b600a8310612c11576001810190505b80915050919050565b6000808273ffffffffffffffffffffffffffffffffffffffff163b119050919050565b6040518060a0016040528060008152602001600073ffffffffffffffffffffffffffffffffffffffff1681526020016000815260200160608152602001600081525090565b6000604051905090565b600080fd5b600080fd5b60007fffffffff0000000000000000000000000000000000000000000000000000000082169050919050565b612ccb81612c96565b8114612cd657600080fd5b50565b600081359050612ce881612cc2565b92915050565b600060208284031215612d0457612d03612c8c565b5b6000612d1284828501612cd9565b91505092915050565b60008115159050919050565b612d3081612d1b565b82525050565b6000602082019050612d4b6000830184612d27565b92915050565b600081519050919050565b600082825260208201905092915050565b60005b83811015612d8b578082015181840152602081019050612d70565b60008484015250505050565b6000601f19601f8301169050919050565b6000612db382612d51565b612dbd8185612d5c565b9350612dcd818560208601612d6d565b612dd681612d97565b840191505092915050565b60006020820190508181036000830152612dfb8184612da8565b905092915050565b6000819050919050565b612e1681612e03565b8114612e2157600080fd5b50565b600081359050612e3381612e0d565b92915050565b600060208284031215612e4f57612e4e612c8c565b5b6000612e5d84828501612e24565b91505092915050565b600073ffffffffffffffffffffffffffffffffffffffff82169050919050565b6000612e9182612e66565b9050919050565b612ea181612e86565b82525050565b6000602082019050612ebc6000830184612e98565b92915050565b612ecb81612e86565b8114612ed657600080fd5b50565b600081359050612ee881612ec2565b92915050565b60008060408385031215612f0557612f04612c8c565b5b6000612f1385828601612ed9565b9250506020612f2485828601612e24565b9150509250929050565b600080600060608486031215612f4757612f46612c8c565b5b6000612f5586828701612ed9565b9350506020612f6686828701612ed9565b9250506040612f7786828701612e24565b9150509250925092565b612f8a81612e03565b82525050565b6000612f9b82612e66565b9050919050565b612fab81612f90565b82525050565b600060a082019050612fc66000830188612f81565b612fd36020830187612fa2565b612fe06040830186612f81565b8181036060830152612ff28185612da8565b90506130016080830184612f81565b9695505050505050565b600081519050919050565b600082825260208201905092915050565b6000819050602082019050919050565b61304081612e03565b82525050565b61304f81612f90565b82525050565b600082825260208201905092915050565b600061307182612d51565b61307b8185613055565b935061308b818560208601612d6d565b61309481612d97565b840191505092915050565b600060a0830160008301516130b76000860182613037565b5060208301516130ca6020860182613046565b5060408301516130dd6040860182613037565b50606083015184820360608601526130f58282613066565b915050608083015161310a6080860182613037565b508091505092915050565b6000613121838361309f565b905092915050565b6000602082019050919050565b60006131418261300b565b61314b8185613016565b93508360208202850161315d85613027565b8060005b85811015613199578484038952815161317a8582613115565b945061318583613129565b925060208a01995050600181019050613161565b50829750879550505050505092915050565b600060208201905081810360008301526131c58184613136565b905092915050565b6000602082840312156131e3576131e2612c8c565b5b60006131f184828501612ed9565b91505092915050565b600060208201905061320f6000830184612f81565b92915050565b61321e81612d1b565b811461322957600080fd5b50565b60008135905061323b81613215565b92915050565b6000806040838503121561325857613257612c8c565b5b600061326685828601612ed9565b92505060206132778582860161322c565b9150509250929050565b600080fd5b600080fd5b7f4e487b7100000000000000000000000000000000000000000000000000000000600052604160045260246000fd5b6132c382612d97565b810181811067ffffffffffffffff821117156132e2576132e161328b565b5b80604052505050565b60006132f5612c82565b905061330182826132ba565b919050565b600067ffffffffffffffff8211156133215761332061328b565b5b61332a82612d97565b9050602081019050919050565b82818337600083830152505050565b600061335961335484613306565b6132eb565b90508281526020810184848401111561337557613374613286565b5b613380848285613337565b509392505050565b600082601f83011261339d5761339c613281565b5b81356133ad848260208601613346565b91505092915050565b600080600080608085870312156133d0576133cf612c8c565b5b60006133de87828801612ed9565b94505060206133ef87828801612ed9565b935050604061340087828801612e24565b925050606085013567ffffffffffffffff81111561342157613420612c91565b5b61342d87828801613388565b91505092959194509250565b600080604083850312156134505761344f612c8c565b5b600061345e85828601612e24565b925050602061346f85828601612e24565b9150509250929050565b600080604083850312156134905761348f612c8c565b5b600061349e85828601612ed9565b92505060206134af85828601612ed9565b9150509250929050565b7f4e487b7100000000000000000000000000000000000000000000000000000000600052602260045260246000fd5b6000600282049050600182168061350057607f821691505b602082108103613513576135126134b9565b5b50919050565b7f4552433732313a20617070726f76616c20746f2063757272656e74206f776e6560008201527f7200000000000000000000000000000000000000000000000000000000000000602082015250565b6000613575602183612d5c565b915061358082613519565b604082019050919050565b600060208201905081810360008301526135a481613568565b9050919050565b7f4552433732313a20617070726f76652063616c6c6572206973206e6f7420746f60008201527f6b656e206f776e6572206f7220617070726f76656420666f7220616c6c000000602082015250565b6000613607603d83612d5c565b9150613612826135ab565b604082019050919050565b60006020820190508181036000830152613636816135fa565b9050919050565b7f4552433732313a2063616c6c6572206973206e6f7420746f6b656e206f776e6560008201527f72206f7220617070726f76656400000000000000000000000000000000000000602082015250565b6000613699602d83612d5c565b91506136a48261363d565b604082019050919050565b600060208201905081810360008301526136c88161368c565b9050919050565b7f4e487b7100000000000000000000000000000000000000000000000000000000600052603260045260246000fd5b7f506c656173652073656e64207468652061736b696e6720707269636520696e2060008201527f6f7264657220746f20636f6d706c657465207468652070757263686173650000602082015250565b600061375a603e83612d5c565b9150613765826136fe565b604082019050919050565b600060208201905081810360008301526137898161374d565b9050919050565b60008190508160005260206000209050919050565b60006020601f8301049050919050565b600082821b905092915050565b6000600883026137f27fffffffffffffffffffffffffffffffffffffffffffffffffffffffffffffffff826137b5565b6137fc86836137b5565b95508019841693508086168417925050509392505050565b6000819050919050565b600061383961383461382f84612e03565b613814565b612e03565b9050919050565b6000819050919050565b6138538361381e565b61386761385f82613840565b8484546137c2565b825550505050565b600090565b61387c61386f565b61388781848461384a565b505050565b5b818110156138ab576138a0600082613874565b60018101905061388d565b5050565b601f8211156138f0576138c181613790565b6138ca846137a5565b810160208510156138d9578190505b6138ed6138e5856137a5565b83018261388c565b50505b505050565b600082821c905092915050565b6000613913600019846008026138f5565b1980831691505092915050565b600061392c8383613902565b9150826002028217905092915050565b61394582612d51565b67ffffffffffffffff81111561395e5761395d61328b565b5b61396882546134e8565b6139738282856138af565b600060209050601f8311600181146139a65760008415613994578287015190505b61399e8582613920565b865550613a06565b601f1984166139b486613790565b60005b828110156139dc578489015182556001820191506020850194506020810190506139b7565b868310156139f957848901516139f5601f891682613902565b8355505b6001600288020188555050505b505050505050565b6000604082019050613a236000830185612e98565b613a306020830184612f81565b9392505050565b7f4e487b7100000000000000000000000000000000000000000000000000000000600052601160045260246000fd5b6000613a7182612e03565b91507fffffffffffffffffffffffffffffffffffffffffffffffffffffffffffffffff8203613aa357613aa2613a37565b5b600182019050919050565b7f4552433732313a20696e76616c696420746f6b656e2049440000000000000000600082015250565b6000613ae4601883612d5c565b9150613aef82613aae565b602082019050919050565b60006020820190508181036000830152613b1381613ad7565b9050919050565b7f4552433732313a2061646472657373207a65726f206973206e6f74206120766160008201527f6c6964206f776e65720000000000000000000000000000000000000000000000602082015250565b6000613b76602983612d5c565b9150613b8182613b1a565b604082019050919050565b60006020820190508181036000830152613ba581613b69565b9050919050565b6000613bb782612e03565b9150613bc283612e03565b9250828202613bd081612e03565b91508282048414831517613be757613be6613a37565b5b5092915050565b600081905092915050565b6000613c0482612d51565b613c0e8185613bee565b9350613c1e818560208601612d6d565b80840191505092915050565b6000613c368285613bf9565b9150613c428284613bf9565b91508190509392505050565b7f4d7573742070617920726f79616c747900000000000000000000000000000000600082015250565b6000613c84601083612d5c565b9150613c8f82613c4e565b602082019050919050565b60006020820190508181036000830152613cb381613c77565b9050919050565b7f5072696365206d7573742062652067726561746572207468616e207a65726f00600082015250565b6000613cf0601f83612d5c565b9150613cfb82613cba565b602082019050919050565b60006020820190508181036000830152613d1f81613ce3565b9050919050565b7f4f776e61626c653a206e6577206f776e657220697320746865207a65726f206160008201527f6464726573730000000000000000000000000000000000000000000000000000602082015250565b6000613d82602683612d5c565b9150613d8d82613d26565b604082019050919050565b60006020820190508181036000830152613db181613d75565b9050919050565b6000613dc382612e03565b9150613dce83612e03565b9250828201905080821115613de657613de5613a37565b5b92915050565b7f4552433732313a207472616e736665722066726f6d20696e636f72726563742060008201527f6f776e6572000000000000000000000000000000000000000000000000000000602082015250565b6000613e48602583612d5c565b9150613e5382613dec565b604082019050919050565b60006020820190508181036000830152613e7781613e3b565b9050919050565b7f4552433732313a207472616e7366657220746f20746865207a65726f2061646460008201527f7265737300000000000000000000000000000000000000000000000000000000602082015250565b6000613eda602483612d5c565b9150613ee582613e7e565b604082019050919050565b60006020820190508181036000830152613f0981613ecd565b9050919050565b7f4f776e61626c653a2063616c6c6572206973206e6f7420746865206f776e6572600082015250565b6000613f46602083612d5c565b9150613f5182613f10565b602082019050919050565b60006020820190508181036000830152613f7581613f39565b9050919050565b7f4552433732313a20617070726f766520746f2063616c6c657200000000000000600082015250565b6000613fb2601983612d5c565b9150613fbd82613f7c565b602082019050919050565b60006020820190508181036000830152613fe181613fa5565b9050919050565b7f4552433732313a207472616e7366657220746f206e6f6e20455243373231526560008201527f63656976657220696d706c656d656e7465720000000000000000000000000000602082015250565b6000614044603283612d5c565b915061404f82613fe8565b604082019050919050565b6000602082019050818103600083015261407381614037565b9050919050565b7f4e487b7100000000000000000000000000000000000000000000000000000000600052601260045260246000fd5b600081519050919050565b600082825260208201905092915050565b60006140d0826140a9565b6140da81856140b4565b93506140ea818560208601612d6d565b6140f381612d97565b840191505092915050565b60006080820190506141136000830187612e98565b6141206020830186612e98565b61412d6040830185612f81565b818103606083015261413f81846140c5565b905095945050505050565b60008151905061415981612cc2565b92915050565b60006020828403121561417557614174612c8c565b5b60006141838482850161414a565b9150509291505056fea2646970667358221220cc0e6599cd4110e1e46f7ee13bbd855b85ea89d7ea50acb977d9fd6174ee060a64736f6c6343000811003368747470733a2f2f6261667962656964686a6a626a6f6e7971636168757a6c707437737a6e6d683478726c62737061336773746f70356f34376c3667736961666665652e697066732e6e667473746f726167652e6c696e6b2f",
  "linkReferences": {},
  "deployedLinkReferences": {}
}