{
  "_format": "hh-sol-artifact-1",
  "contractName": "MusicNFTMarketplace",
  "sourceName": "contracts/MusicNFTMarketplace.sol",
  "abi": [
    {
      "inputs": [
        {
          "internalType": "uint256",
          "name": "_royaltyFee",
          "type": "uint256"
        },
        {
          "internalType": "address",
          "name": "_artist",
          "type": "address"
        },
        {
          "internalType": "uint256[]",
          "name": "_prices",
          "type": "uint256[]"
        }
      ],
      "stateMutability": "payable",
      "type": "constructor"
    },
    {
      "anonymous": false,
      "inputs": [
        {
          "indexed": true,
          "internalType": "address",
          "name": "owner",
          "type": "address"
        },
        {
          "indexed": true,
          "internalType": "address",
          "name": "approved",
          "type": "address"
        },
        {
          "indexed": true,
          "internalType": "uint256",
          "name": "tokenId",
          "type": "uint256"
        }
      ],
      "name": "Approval",
      "type": "event"
    },
    {
      "anonymous": false,
      "inputs": [
        {
          "indexed": true,
          "internalType": "address",
          "name": "owner",
          "type": "address"
        },
        {
          "indexed": true,
          "internalType": "address",
          "name": "operator",
          "type": "address"
        },
        {
          "indexed": false,
          "internalType": "bool",
          "name": "approved",
          "type": "bool"
        }
      ],
      "name": "ApprovalForAll",
      "type": "event"
    },
    {
      "anonymous": false,
      "inputs": [
        {
          "indexed": true,
          "internalType": "uint256",
          "name": "tokenId",
          "type": "uint256"
        },
        {
          "indexed": true,
          "internalType": "address",
          "name": "seller",
          "type": "address"
        },
        {
          "indexed": false,
          "internalType": "address",
          "name": "buyer",
          "type": "address"
        },
        {
          "indexed": false,
          "internalType": "uint256",
          "name": "price",
          "type": "uint256"
        }
      ],
      "name": "MarketItemBought",
      "type": "event"
    },
    {
      "anonymous": false,
      "inputs": [
        {
          "indexed": true,
          "internalType": "uint256",
          "name": "tokenId",
          "type": "uint256"
        },
        {
          "indexed": true,
          "internalType": "address",
          "name": "seller",
          "type": "address"
        },
        {
          "indexed": false,
          "internalType": "uint256",
          "name": "price",
          "type": "uint256"
        }
      ],
      "name": "MarketItemRelisted",
      "type": "event"
    },
    {
      "anonymous": false,
      "inputs": [
        {
          "indexed": true,
          "internalType": "address",
          "name": "previousOwner",
          "type": "address"
        },
        {
          "indexed": true,
          "internalType": "address",
          "name": "newOwner",
          "type": "address"
        }
      ],
      "name": "OwnershipTransferred",
      "type": "event"
    },
    {
      "anonymous": false,
      "inputs": [
        {
          "indexed": true,
          "internalType": "address",
          "name": "from",
          "type": "address"
        },
        {
          "indexed": true,
          "internalType": "address",
          "name": "to",
          "type": "address"
        },
        {
          "indexed": true,
          "internalType": "uint256",
          "name": "tokenId",
          "type": "uint256"
        }
      ],
      "name": "Transfer",
      "type": "event"
    },
    {
      "inputs": [
        {
          "internalType": "address",
          "name": "to",
          "type": "address"
        },
        {
          "internalType": "uint256",
          "name": "tokenId",
          "type": "uint256"
        }
      ],
      "name": "approve",
      "outputs": [],
      "stateMutability": "nonpayable",
      "type": "function"
    },
    {
      "inputs": [],
      "name": "artist",
      "outputs": [
        {
          "internalType": "address",
          "name": "",
          "type": "address"
        }
      ],
      "stateMutability": "view",
      "type": "function"
    },
    {
      "inputs": [
        {
          "internalType": "address",
          "name": "owner",
          "type": "address"
        }
      ],
      "name": "balanceOf",
      "outputs": [
        {
          "internalType": "uint256",
          "name": "",
          "type": "uint256"
        }
      ],
      "stateMutability": "view",
      "type": "function"
    },
    {
      "inputs": [],
      "name": "baseExtension",
      "outputs": [
        {
          "internalType": "string",
          "name": "",
          "type": "string"
        }
      ],
      "stateMutability": "view",
      "type": "function"
    },
    {
      "inputs": [],
      "name": "baseURI",
      "outputs": [
        {
          "internalType": "string",
          "name": "",
          "type": "string"
        }
      ],
      "stateMutability": "view",
      "type": "function"
    },
    {
      "inputs": [
        {
          "internalType": "uint256",
          "name": "_tokenId",
          "type": "uint256"
        }
      ],
      "name": "buyToken",
      "outputs": [],
      "stateMutability": "payable",
      "type": "function"
    },
    {
      "inputs": [],
      "name": "getAllUnsoldTokens",
      "outputs": [
        {
          "components": [
            {
              "internalType": "uint256",
              "name": "tokenId",
              "type": "uint256"
            },
            {
              "internalType": "address payable",
              "name": "seller",
              "type": "address"
            },
            {
              "internalType": "uint256",
              "name": "price",
              "type": "uint256"
            }
          ],
          "internalType": "struct MusicNFTMarketplace.MarketItem[]",
          "name": "",
          "type": "tuple[]"
        }
      ],
      "stateMutability": "view",
      "type": "function"
    },
    {
      "inputs": [
        {
          "internalType": "uint256",
          "name": "tokenId",
          "type": "uint256"
        }
      ],
      "name": "getApproved",
      "outputs": [
        {
          "internalType": "address",
          "name": "",
          "type": "address"
        }
      ],
      "stateMutability": "view",
      "type": "function"
    },
    {
      "inputs": [],
      "name": "getMyTokens",
      "outputs": [
        {
          "components": [
            {
              "internalType": "uint256",
              "name": "tokenId",
              "type": "uint256"
            },
            {
              "internalType": "address payable",
              "name": "seller",
              "type": "address"
            },
            {
              "internalType": "uint256",
              "name": "price",
              "type": "uint256"
            }
          ],
          "internalType": "struct MusicNFTMarketplace.MarketItem[]",
          "name": "",
          "type": "tuple[]"
        }
      ],
      "stateMutability": "view",
      "type": "function"
    },
    {
      "inputs": [
        {
          "internalType": "address",
          "name": "owner",
          "type": "address"
        },
        {
          "internalType": "address",
          "name": "operator",
          "type": "address"
        }
      ],
      "name": "isApprovedForAll",
      "outputs": [
        {
          "internalType": "bool",
          "name": "",
          "type": "bool"
        }
      ],
      "stateMutability": "view",
      "type": "function"
    },
    {
      "inputs": [
        {
          "internalType": "uint256",
          "name": "",
          "type": "uint256"
        }
      ],
      "name": "marketItems",
      "outputs": [
        {
          "internalType": "uint256",
          "name": "tokenId",
          "type": "uint256"
        },
        {
          "internalType": "address payable",
          "name": "seller",
          "type": "address"
        },
        {
          "internalType": "uint256",
          "name": "price",
          "type": "uint256"
        }
      ],
      "stateMutability": "view",
      "type": "function"
    },
    {
      "inputs": [],
      "name": "name",
      "outputs": [
        {
          "internalType": "string",
          "name": "",
          "type": "string"
        }
      ],
      "stateMutability": "view",
      "type": "function"
    },
    {
      "inputs": [],
      "name": "owner",
      "outputs": [
        {
          "internalType": "address",
          "name": "",
          "type": "address"
        }
      ],
      "stateMutability": "view",
      "type": "function"
    },
    {
      "inputs": [
        {
          "internalType": "uint256",
          "name": "tokenId",
          "type": "uint256"
        }
      ],
      "name": "ownerOf",
      "outputs": [
        {
          "internalType": "address",
          "name": "",
          "type": "address"
        }
      ],
      "stateMutability": "view",
      "type": "function"
    },
    {
      "inputs": [],
      "name": "renounceOwnership",
      "outputs": [],
      "stateMutability": "nonpayable",
      "type": "function"
    },
    {
      "inputs": [
        {
          "internalType": "uint256",
          "name": "_tokenId",
          "type": "uint256"
        },
        {
          "internalType": "uint256",
          "name": "_price",
          "type": "uint256"
        }
      ],
      "name": "resellToken",
      "outputs": [],
      "stateMutability": "payable",
      "type": "function"
    },
    {
      "inputs": [],
      "name": "royaltyFee",
      "outputs": [
        {
          "internalType": "uint256",
          "name": "",
          "type": "uint256"
        }
      ],
      "stateMutability": "view",
      "type": "function"
    },
    {
      "inputs": [
        {
          "internalType": "address",
          "name": "from",
          "type": "address"
        },
        {
          "internalType": "address",
          "name": "to",
          "type": "address"
        },
        {
          "internalType": "uint256",
          "name": "tokenId",
          "type": "uint256"
        }
      ],
      "name": "safeTransferFrom",
      "outputs": [],
      "stateMutability": "nonpayable",
      "type": "function"
    },
    {
      "inputs": [
        {
          "internalType": "address",
          "name": "from",
          "type": "address"
        },
        {
          "internalType": "address",
          "name": "to",
          "type": "address"
        },
        {
          "internalType": "uint256",
          "name": "tokenId",
          "type": "uint256"
        },
        {
          "internalType": "bytes",
          "name": "data",
          "type": "bytes"
        }
      ],
      "name": "safeTransferFrom",
      "outputs": [],
      "stateMutability": "nonpayable",
      "type": "function"
    },
    {
      "inputs": [
        {
          "internalType": "address",
          "name": "operator",
          "type": "address"
        },
        {
          "internalType": "bool",
          "name": "approved",
          "type": "bool"
        }
      ],
      "name": "setApprovalForAll",
      "outputs": [],
      "stateMutability": "nonpayable",
      "type": "function"
    },
    {
      "inputs": [
        {
          "internalType": "bytes4",
          "name": "interfaceId",
          "type": "bytes4"
        }
      ],
      "name": "supportsInterface",
      "outputs": [
        {
          "internalType": "bool",
          "name": "",
          "type": "bool"
        }
      ],
      "stateMutability": "view",
      "type": "function"
    },
    {
      "inputs": [],
      "name": "symbol",
      "outputs": [
        {
          "internalType": "string",
          "name": "",
          "type": "string"
        }
      ],
      "stateMutability": "view",
      "type": "function"
    },
    {
      "inputs": [
        {
          "internalType": "uint256",
          "name": "tokenId",
          "type": "uint256"
        }
      ],
      "name": "tokenURI",
      "outputs": [
        {
          "internalType": "string",
          "name": "",
          "type": "string"
        }
      ],
      "stateMutability": "view",
      "type": "function"
    },
    {
      "inputs": [
        {
          "internalType": "address",
          "name": "from",
          "type": "address"
        },
        {
          "internalType": "address",
          "name": "to",
          "type": "address"
        },
        {
          "internalType": "uint256",
          "name": "tokenId",
          "type": "uint256"
        }
      ],
      "name": "transferFrom",
      "outputs": [],
      "stateMutability": "nonpayable",
      "type": "function"
    },
    {
      "inputs": [
        {
          "internalType": "address",
          "name": "newOwner",
          "type": "address"
        }
      ],
      "name": "transferOwnership",
      "outputs": [],
      "stateMutability": "nonpayable",
      "type": "function"
    },
    {
      "inputs": [
        {
          "internalType": "uint256",
          "name": "_royaltyFee",
          "type": "uint256"
        }
      ],
      "name": "updateRoyaltyFee",
      "outputs": [],
      "stateMutability": "nonpayable",
      "type": "function"
    }
  ],
  "bytecode": "0x6080604052604051806080016040528060598152602001620044fd60599139600790816200002e919062000990565b506040518060400160405280600581526020017f2e6a736f6e0000000000000000000000000000000000000000000000000000008152506008908162000075919062000990565b50604051620045563803806200455683398181016040528101906200009b919062000c67565b6040518060400160405280600681526020017f44417070466900000000000000000000000000000000000000000000000000008152506040518060400160405280600481526020017f4441505000000000000000000000000000000000000000000000000000000000815250816000908162000118919062000990565b5080600190816200012a919062000990565b5050506200014d620001416200037060201b60201c565b6200037860201b60201c565b348382516200015d919062000d11565b1115620001a1576040517f08c379a0000000000000000000000000000000000000000000000000000000008152600401620001989062000e09565b60405180910390fd5b82600a8190555081600960006101000a81548173ffffffffffffffffffffffffffffffffffffffff021916908373ffffffffffffffffffffffffffffffffffffffff16021790555060005b81518160ff16101562000366576000828260ff168151811062000214576200021362000e2b565b5b6020026020010151116200025f576040517f08c379a0000000000000000000000000000000000000000000000000000000008152600401620002569062000eaa565b60405180910390fd5b62000274308260ff166200043e60201b60201c565b600b60405180606001604052808360ff1681526020013373ffffffffffffffffffffffffffffffffffffffff168152602001848460ff1681518110620002bf57620002be62000e2b565b5b602002602001015181525090806001815401808255809150506001900390600052602060002090600302016000909190919091506000820151816000015560208201518160010160006101000a81548173ffffffffffffffffffffffffffffffffffffffff021916908373ffffffffffffffffffffffffffffffffffffffff16021790555060408201518160020155505080806200035d9062000ed9565b915050620001ec565b5050505062000feb565b600033905090565b6000600660009054906101000a900473ffffffffffffffffffffffffffffffffffffffff16905081600660006101000a81548173ffffffffffffffffffffffffffffffffffffffff021916908373ffffffffffffffffffffffffffffffffffffffff1602179055508173ffffffffffffffffffffffffffffffffffffffff168173ffffffffffffffffffffffffffffffffffffffff167f8be0079c531659141344cd1fd0a4f28419497f9722a3daafe3b4186f6b6457e060405160405180910390a35050565b600073ffffffffffffffffffffffffffffffffffffffff168273ffffffffffffffffffffffffffffffffffffffff1603620004b0576040517f08c379a0000000000000000000000000000000000000000000000000000000008152600401620004a79062000f57565b60405180910390fd5b620004c1816200068460201b60201c565b1562000504576040517f08c379a0000000000000000000000000000000000000000000000000000000008152600401620004fb9062000fc9565b60405180910390fd5b6200051a600083836001620006cd60201b60201c565b6200052b816200068460201b60201c565b156200056e576040517f08c379a0000000000000000000000000000000000000000000000000000000008152600401620005659062000fc9565b60405180910390fd5b6001600360008473ffffffffffffffffffffffffffffffffffffffff1673ffffffffffffffffffffffffffffffffffffffff16815260200190815260200160002060008282540192505081905550816002600083815260200190815260200160002060006101000a81548173ffffffffffffffffffffffffffffffffffffffff021916908373ffffffffffffffffffffffffffffffffffffffff160217905550808273ffffffffffffffffffffffffffffffffffffffff16600073ffffffffffffffffffffffffffffffffffffffff167fddf252ad1be2c89b69c2b068fc378daa952ba7f163c4a11628f55a4df523b3ef60405160405180910390a462000680600083836001620006d360201b60201c565b5050565b60008073ffffffffffffffffffffffffffffffffffffffff16620006ae83620006d960201b60201c565b73ffffffffffffffffffffffffffffffffffffffff1614159050919050565b50505050565b50505050565b60006002600083815260200190815260200160002060009054906101000a900473ffffffffffffffffffffffffffffffffffffffff169050919050565b600081519050919050565b7f4e487b7100000000000000000000000000000000000000000000000000000000600052604160045260246000fd5b7f4e487b7100000000000000000000000000000000000000000000000000000000600052602260045260246000fd5b600060028204905060018216806200079857607f821691505b602082108103620007ae57620007ad62000750565b5b50919050565b60008190508160005260206000209050919050565b60006020601f8301049050919050565b600082821b905092915050565b600060088302620008187fffffffffffffffffffffffffffffffffffffffffffffffffffffffffffffffff82620007d9565b620008248683620007d9565b95508019841693508086168417925050509392505050565b6000819050919050565b6000819050919050565b6000620008716200086b62000865846200083c565b62000846565b6200083c565b9050919050565b6000819050919050565b6200088d8362000850565b620008a56200089c8262000878565b848454620007e6565b825550505050565b600090565b620008bc620008ad565b620008c981848462000882565b505050565b5b81811015620008f157620008e5600082620008b2565b600181019050620008cf565b5050565b601f82111562000940576200090a81620007b4565b6200091584620007c9565b8101602085101562000925578190505b6200093d6200093485620007c9565b830182620008ce565b50505b505050565b600082821c905092915050565b6000620009656000198460080262000945565b1980831691505092915050565b600062000980838362000952565b9150826002028217905092915050565b6200099b8262000716565b67ffffffffffffffff811115620009b757620009b662000721565b5b620009c382546200077f565b620009d0828285620008f5565b600060209050601f83116001811462000a085760008415620009f3578287015190505b620009ff858262000972565b86555062000a6f565b601f19841662000a1886620007b4565b60005b8281101562000a425784890151825560018201915060208501945060208101905062000a1b565b8683101562000a62578489015162000a5e601f89168262000952565b8355505b6001600288020188555050505b505050505050565b6000604051905090565b600080fd5b600080fd5b62000a96816200083c565b811462000aa257600080fd5b50565b60008151905062000ab68162000a8b565b92915050565b600073ffffffffffffffffffffffffffffffffffffffff82169050919050565b600062000ae98262000abc565b9050919050565b62000afb8162000adc565b811462000b0757600080fd5b50565b60008151905062000b1b8162000af0565b92915050565b600080fd5b6000601f19601f8301169050919050565b62000b428262000b26565b810181811067ffffffffffffffff8211171562000b645762000b6362000721565b5b80604052505050565b600062000b7962000a77565b905062000b87828262000b37565b919050565b600067ffffffffffffffff82111562000baa5762000ba962000721565b5b602082029050602081019050919050565b600080fd5b600062000bd762000bd18462000b8c565b62000b6d565b9050808382526020820190506020840283018581111562000bfd5762000bfc62000bbb565b5b835b8181101562000c2a578062000c15888262000aa5565b84526020840193505060208101905062000bff565b5050509392505050565b600082601f83011262000c4c5762000c4b62000b21565b5b815162000c5e84826020860162000bc0565b91505092915050565b60008060006060848603121562000c835762000c8262000a81565b5b600062000c938682870162000aa5565b935050602062000ca68682870162000b0a565b925050604084015167ffffffffffffffff81111562000cca5762000cc962000a86565b5b62000cd88682870162000c34565b9150509250925092565b7f4e487b7100000000000000000000000000000000000000000000000000000000600052601160045260246000fd5b600062000d1e826200083c565b915062000d2b836200083c565b925082820262000d3b816200083c565b9150828204841483151762000d555762000d5462000ce2565b5b5092915050565b600082825260208201905092915050565b7f4465706c6f796572206d7573742070617920726f79616c74792066656520666f60008201527f72206561636820746f6b656e206c6973746564206f6e20746865206d61726b6560208201527f74706c6163650000000000000000000000000000000000000000000000000000604082015250565b600062000df160468362000d5c565b915062000dfe8262000d6d565b606082019050919050565b6000602082019050818103600083015262000e248162000de2565b9050919050565b7f4e487b7100000000000000000000000000000000000000000000000000000000600052603260045260246000fd5b7f5072696365206d7573742062652067726561746572207468616e203000000000600082015250565b600062000e92601c8362000d5c565b915062000e9f8262000e5a565b602082019050919050565b6000602082019050818103600083015262000ec58162000e83565b9050919050565b600060ff82169050919050565b600062000ee68262000ecc565b915060ff820362000efc5762000efb62000ce2565b5b600182019050919050565b7f4552433732313a206d696e7420746f20746865207a65726f2061646472657373600082015250565b600062000f3f60208362000d5c565b915062000f4c8262000f07565b602082019050919050565b6000602082019050818103600083015262000f728162000f30565b9050919050565b7f4552433732313a20746f6b656e20616c7265616479206d696e74656400000000600082015250565b600062000fb1601c8362000d5c565b915062000fbe8262000f79565b602082019050919050565b6000602082019050818103600083015262000fe48162000fa2565b9050919050565b6135028062000ffb6000396000f3fe6080604052600436106101815760003560e01c806370a08231116100d1578063b88d4fde1161008a578063c87b56dd11610064578063c87b56dd14610565578063e219fc75146105a2578063e985e9c5146105be578063f2fde38b146105fb57610181565b8063b88d4fde146104e6578063b8997a971461050f578063c66828621461053a57610181565b806370a08231146103e8578063715018a614610425578063767dd0761461043c5780638da5cb5b1461046757806395d89b4114610492578063a22cb465146104bd57610181565b806342842e0e1161013e57806351f28e141161011857806351f28e14146103165780635b3b136a146103555780636352211e146103805780636c0360eb146103bd57610181565b806342842e0e1461029957806343bc1612146102c25780634e83be47146102ed57610181565b806301ffc9a71461018657806306fdde03146101c3578063081812fc146101ee578063095ea7b31461022b57806323b872dd146102545780632d296bf11461027d575b600080fd5b34801561019257600080fd5b506101ad60048036038101906101a891906123d6565b610624565b6040516101ba919061241e565b60405180910390f35b3480156101cf57600080fd5b506101d8610706565b6040516101e591906124c9565b60405180910390f35b3480156101fa57600080fd5b5061021560048036038101906102109190612521565b610798565b604051610222919061258f565b60405180910390f35b34801561023757600080fd5b50610252600480360381019061024d91906125d6565b6107de565b005b34801561026057600080fd5b5061027b60048036038101906102769190612616565b6108f5565b005b61029760048036038101906102929190612521565b610955565b005b3480156102a557600080fd5b506102c060048036038101906102bb9190612616565b610b83565b005b3480156102ce57600080fd5b506102d7610ba3565b6040516102e4919061258f565b60405180910390f35b3480156102f957600080fd5b50610314600480360381019061030f9190612521565b610bc9565b005b34801561032257600080fd5b5061033d60048036038101906103389190612521565b610bdb565b60405161034c93929190612699565b60405180910390f35b34801561036157600080fd5b5061036a610c35565b60405161037791906127df565b60405180910390f35b34801561038c57600080fd5b506103a760048036038101906103a29190612521565b610dcd565b6040516103b4919061258f565b60405180910390f35b3480156103c957600080fd5b506103d2610e53565b6040516103df91906124c9565b60405180910390f35b3480156103f457600080fd5b5061040f600480360381019061040a9190612801565b610ee1565b60405161041c919061282e565b60405180910390f35b34801561043157600080fd5b5061043a610f98565b005b34801561044857600080fd5b50610451610fac565b60405161045e91906127df565b60405180910390f35b34801561047357600080fd5b5061047c611182565b604051610489919061258f565b60405180910390f35b34801561049e57600080fd5b506104a76111ac565b6040516104b491906124c9565b60405180910390f35b3480156104c957600080fd5b506104e460048036038101906104df9190612875565b61123e565b005b3480156104f257600080fd5b5061050d600480360381019061050891906129ea565b611254565b005b34801561051b57600080fd5b506105246112b6565b604051610531919061282e565b60405180910390f35b34801561054657600080fd5b5061054f6112bc565b60405161055c91906124c9565b60405180910390f35b34801561057157600080fd5b5061058c60048036038101906105879190612521565b61134a565b60405161059991906124c9565b60405180910390f35b6105bc60048036038101906105b79190612a6d565b6113b2565b005b3480156105ca57600080fd5b506105e560048036038101906105e09190612aad565b611525565b6040516105f2919061241e565b60405180910390f35b34801561060757600080fd5b50610622600480360381019061061d9190612801565b6115b9565b005b60007f80ac58cd000000000000000000000000000000000000000000000000000000007bffffffffffffffffffffffffffffffffffffffffffffffffffffffff1916827bffffffffffffffffffffffffffffffffffffffffffffffffffffffff191614806106ef57507f5b5e139f000000000000000000000000000000000000000000000000000000007bffffffffffffffffffffffffffffffffffffffffffffffffffffffff1916827bffffffffffffffffffffffffffffffffffffffffffffffffffffffff1916145b806106ff57506106fe8261163c565b5b9050919050565b60606000805461071590612b1c565b80601f016020809104026020016040519081016040528092919081815260200182805461074190612b1c565b801561078e5780601f106107635761010080835404028352916020019161078e565b820191906000526020600020905b81548152906001019060200180831161077157829003601f168201915b5050505050905090565b60006107a3826116a6565b6004600083815260200190815260200160002060009054906101000a900473ffffffffffffffffffffffffffffffffffffffff169050919050565b60006107e982610dcd565b90508073ffffffffffffffffffffffffffffffffffffffff168373ffffffffffffffffffffffffffffffffffffffff1603610859576040517f08c379a000000000000000000000000000000000000000000000000000000000815260040161085090612bbf565b60405180910390fd5b8073ffffffffffffffffffffffffffffffffffffffff166108786116f1565b73ffffffffffffffffffffffffffffffffffffffff1614806108a757506108a6816108a16116f1565b611525565b5b6108e6576040517f08c379a00000000000000000000000000000000000000000000000000000000081526004016108dd90612c51565b60405180910390fd5b6108f083836116f9565b505050565b6109066109006116f1565b826117b2565b610945576040517f08c379a000000000000000000000000000000000000000000000000000000000815260040161093c90612ce3565b60405180910390fd5b610950838383611847565b505050565b6000600b828154811061096b5761096a612d03565b5b90600052602060002090600302016002015490506000600b838154811061099557610994612d03565b5b906000526020600020906003020160010160009054906101000a900473ffffffffffffffffffffffffffffffffffffffff169050813414610a0b576040517f08c379a0000000000000000000000000000000000000000000000000000000008152600401610a0290612da4565b60405180910390fd5b6000600b8481548110610a2157610a20612d03565b5b906000526020600020906003020160010160006101000a81548173ffffffffffffffffffffffffffffffffffffffff021916908373ffffffffffffffffffffffffffffffffffffffff160217905550610a7b303385611847565b600960009054906101000a900473ffffffffffffffffffffffffffffffffffffffff1673ffffffffffffffffffffffffffffffffffffffff166108fc600a549081150290604051600060405180830381858888f19350505050158015610ae5573d6000803e3d6000fd5b508073ffffffffffffffffffffffffffffffffffffffff166108fc349081150290604051600060405180830381858888f19350505050158015610b2c573d6000803e3d6000fd5b508073ffffffffffffffffffffffffffffffffffffffff16837fd356b8423ef89ccba8e4f1dbeccc60b41825fd97d432f2e6a6dbd11ae6ecec113385604051610b76929190612dc4565b60405180910390a3505050565b610b9e83838360405180602001604052806000815250611254565b505050565b600960009054906101000a900473ffffffffffffffffffffffffffffffffffffffff1681565b610bd1611b40565b80600a8190555050565b600b8181548110610beb57600080fd5b90600052602060002090600302016000915090508060000154908060010160009054906101000a900473ffffffffffffffffffffffffffffffffffffffff16908060020154905083565b60606000610c4233610ee1565b905060008167ffffffffffffffff811115610c6057610c5f6128bf565b5b604051908082528060200260200182016040528015610c9957816020015b610c86612333565b815260200190600190039081610c7e5790505b509050600080600090505b600b80549050811015610dc3573373ffffffffffffffffffffffffffffffffffffffff16610cd182610dcd565b73ffffffffffffffffffffffffffffffffffffffff1603610db057600b8181548110610d0057610cff612d03565b5b9060005260206000209060030201604051806060016040529081600082015481526020016001820160009054906101000a900473ffffffffffffffffffffffffffffffffffffffff1673ffffffffffffffffffffffffffffffffffffffff1673ffffffffffffffffffffffffffffffffffffffff168152602001600282015481525050838381518110610d9657610d95612d03565b5b60200260200101819052508180610dac90612e1c565b9250505b8080610dbb90612e1c565b915050610ca4565b5081935050505090565b600080610dd983611bbe565b9050600073ffffffffffffffffffffffffffffffffffffffff168173ffffffffffffffffffffffffffffffffffffffff1603610e4a576040517f08c379a0000000000000000000000000000000000000000000000000000000008152600401610e4190612eb0565b60405180910390fd5b80915050919050565b60078054610e6090612b1c565b80601f0160208091040260200160405190810160405280929190818152602001828054610e8c90612b1c565b8015610ed95780601f10610eae57610100808354040283529160200191610ed9565b820191906000526020600020905b815481529060010190602001808311610ebc57829003601f168201915b505050505081565b60008073ffffffffffffffffffffffffffffffffffffffff168273ffffffffffffffffffffffffffffffffffffffff1603610f51576040517f08c379a0000000000000000000000000000000000000000000000000000000008152600401610f4890612f42565b60405180910390fd5b600360008373ffffffffffffffffffffffffffffffffffffffff1673ffffffffffffffffffffffffffffffffffffffff168152602001908152602001600020549050919050565b610fa0611b40565b610faa6000611bfb565b565b60606000610fb930610ee1565b905060008167ffffffffffffffff811115610fd757610fd66128bf565b5b60405190808252806020026020018201604052801561101057816020015b610ffd612333565b815260200190600190039081610ff55790505b509050600080600090505b600b8054905081101561117857600073ffffffffffffffffffffffffffffffffffffffff16600b828154811061105457611053612d03565b5b906000526020600020906003020160010160009054906101000a900473ffffffffffffffffffffffffffffffffffffffff1673ffffffffffffffffffffffffffffffffffffffff161461116557600b81815481106110b5576110b4612d03565b5b9060005260206000209060030201604051806060016040529081600082015481526020016001820160009054906101000a900473ffffffffffffffffffffffffffffffffffffffff1673ffffffffffffffffffffffffffffffffffffffff1673ffffffffffffffffffffffffffffffffffffffff16815260200160028201548152505083838151811061114b5761114a612d03565b5b6020026020010181905250818061116190612e1c565b9250505b808061117090612e1c565b91505061101b565b5081935050505090565b6000600660009054906101000a900473ffffffffffffffffffffffffffffffffffffffff16905090565b6060600180546111bb90612b1c565b80601f01602080910402602001604051908101604052809291908181526020018280546111e790612b1c565b80156112345780601f1061120957610100808354040283529160200191611234565b820191906000526020600020905b81548152906001019060200180831161121757829003601f168201915b5050505050905090565b6112506112496116f1565b8383611cc1565b5050565b61126561125f6116f1565b836117b2565b6112a4576040517f08c379a000000000000000000000000000000000000000000000000000000000815260040161129b90612ce3565b60405180910390fd5b6112b084848484611e2d565b50505050565b600a5481565b600880546112c990612b1c565b80601f01602080910402602001604051908101604052809291908181526020018280546112f590612b1c565b80156113425780601f1061131757610100808354040283529160200191611342565b820191906000526020600020905b81548152906001019060200180831161132557829003601f168201915b505050505081565b6060611355826116a6565b600061135f611e89565b9050600081511161137f57604051806020016040528060008152506113aa565b8061138984611f1b565b60405160200161139a929190612f9e565b6040516020818303038152906040525b915050919050565b600a5434146113f6576040517f08c379a00000000000000000000000000000000000000000000000000000000081526004016113ed9061300e565b60405180910390fd5b60008111611439576040517f08c379a00000000000000000000000000000000000000000000000000000000081526004016114309061307a565b60405180910390fd5b80600b838154811061144e5761144d612d03565b5b90600052602060002090600302016002018190555033600b838154811061147857611477612d03565b5b906000526020600020906003020160010160006101000a81548173ffffffffffffffffffffffffffffffffffffffff021916908373ffffffffffffffffffffffffffffffffffffffff1602179055506114d2333084611847565b3373ffffffffffffffffffffffffffffffffffffffff16827fb2ba12d2566848b13548a3741edb565b69d3cbce7796959cd67431610207eb1383604051611519919061282e565b60405180910390a35050565b6000600560008473ffffffffffffffffffffffffffffffffffffffff1673ffffffffffffffffffffffffffffffffffffffff16815260200190815260200160002060008373ffffffffffffffffffffffffffffffffffffffff1673ffffffffffffffffffffffffffffffffffffffff16815260200190815260200160002060009054906101000a900460ff16905092915050565b6115c1611b40565b600073ffffffffffffffffffffffffffffffffffffffff168173ffffffffffffffffffffffffffffffffffffffff1603611630576040517f08c379a00000000000000000000000000000000000000000000000000000000081526004016116279061310c565b60405180910390fd5b61163981611bfb565b50565b60007f01ffc9a7000000000000000000000000000000000000000000000000000000007bffffffffffffffffffffffffffffffffffffffffffffffffffffffff1916827bffffffffffffffffffffffffffffffffffffffffffffffffffffffff1916149050919050565b6116af81611fe9565b6116ee576040517f08c379a00000000000000000000000000000000000000000000000000000000081526004016116e590612eb0565b60405180910390fd5b50565b600033905090565b816004600083815260200190815260200160002060006101000a81548173ffffffffffffffffffffffffffffffffffffffff021916908373ffffffffffffffffffffffffffffffffffffffff160217905550808273ffffffffffffffffffffffffffffffffffffffff1661176c83610dcd565b73ffffffffffffffffffffffffffffffffffffffff167f8c5be1e5ebec7d5bd14f71427d1e84f3dd0314c0f7b2291e5b200ac8c7c3b92560405160405180910390a45050565b6000806117be83610dcd565b90508073ffffffffffffffffffffffffffffffffffffffff168473ffffffffffffffffffffffffffffffffffffffff16148061180057506117ff8185611525565b5b8061183e57508373ffffffffffffffffffffffffffffffffffffffff1661182684610798565b73ffffffffffffffffffffffffffffffffffffffff16145b91505092915050565b8273ffffffffffffffffffffffffffffffffffffffff1661186782610dcd565b73ffffffffffffffffffffffffffffffffffffffff16146118bd576040517f08c379a00000000000000000000000000000000000000000000000000000000081526004016118b49061319e565b60405180910390fd5b600073ffffffffffffffffffffffffffffffffffffffff168273ffffffffffffffffffffffffffffffffffffffff160361192c576040517f08c379a000000000000000000000000000000000000000000000000000000000815260040161192390613230565b60405180910390fd5b611939838383600161202a565b8273ffffffffffffffffffffffffffffffffffffffff1661195982610dcd565b73ffffffffffffffffffffffffffffffffffffffff16146119af576040517f08c379a00000000000000000000000000000000000000000000000000000000081526004016119a69061319e565b60405180910390fd5b6004600082815260200190815260200160002060006101000a81549073ffffffffffffffffffffffffffffffffffffffff02191690556001600360008573ffffffffffffffffffffffffffffffffffffffff1673ffffffffffffffffffffffffffffffffffffffff168152602001908152602001600020600082825403925050819055506001600360008473ffffffffffffffffffffffffffffffffffffffff1673ffffffffffffffffffffffffffffffffffffffff16815260200190815260200160002060008282540192505081905550816002600083815260200190815260200160002060006101000a81548173ffffffffffffffffffffffffffffffffffffffff021916908373ffffffffffffffffffffffffffffffffffffffff160217905550808273ffffffffffffffffffffffffffffffffffffffff168473ffffffffffffffffffffffffffffffffffffffff167fddf252ad1be2c89b69c2b068fc378daa952ba7f163c4a11628f55a4df523b3ef60405160405180910390a4611b3b8383836001612030565b505050565b611b486116f1565b73ffffffffffffffffffffffffffffffffffffffff16611b66611182565b73ffffffffffffffffffffffffffffffffffffffff1614611bbc576040517f08c379a0000000000000000000000000000000000000000000000000000000008152600401611bb39061329c565b60405180910390fd5b565b60006002600083815260200190815260200160002060009054906101000a900473ffffffffffffffffffffffffffffffffffffffff169050919050565b6000600660009054906101000a900473ffffffffffffffffffffffffffffffffffffffff16905081600660006101000a81548173ffffffffffffffffffffffffffffffffffffffff021916908373ffffffffffffffffffffffffffffffffffffffff1602179055508173ffffffffffffffffffffffffffffffffffffffff168173ffffffffffffffffffffffffffffffffffffffff167f8be0079c531659141344cd1fd0a4f28419497f9722a3daafe3b4186f6b6457e060405160405180910390a35050565b8173ffffffffffffffffffffffffffffffffffffffff168373ffffffffffffffffffffffffffffffffffffffff1603611d2f576040517f08c379a0000000000000000000000000000000000000000000000000000000008152600401611d2690613308565b60405180910390fd5b80600560008573ffffffffffffffffffffffffffffffffffffffff1673ffffffffffffffffffffffffffffffffffffffff16815260200190815260200160002060008473ffffffffffffffffffffffffffffffffffffffff1673ffffffffffffffffffffffffffffffffffffffff16815260200190815260200160002060006101000a81548160ff0219169083151502179055508173ffffffffffffffffffffffffffffffffffffffff168373ffffffffffffffffffffffffffffffffffffffff167f17307eab39ab6107e8899845ad3d59bd9653f200f220920489ca2b5937696c3183604051611e20919061241e565b60405180910390a3505050565b611e38848484611847565b611e4484848484612036565b611e83576040517f08c379a0000000000000000000000000000000000000000000000000000000008152600401611e7a9061339a565b60405180910390fd5b50505050565b606060078054611e9890612b1c565b80601f0160208091040260200160405190810160405280929190818152602001828054611ec490612b1c565b8015611f115780601f10611ee657610100808354040283529160200191611f11565b820191906000526020600020905b815481529060010190602001808311611ef457829003601f168201915b5050505050905090565b606060006001611f2a846121bd565b01905060008167ffffffffffffffff811115611f4957611f486128bf565b5b6040519080825280601f01601f191660200182016040528015611f7b5781602001600182028036833780820191505090505b509050600082602001820190505b600115611fde578080600190039150507f3031323334353637383961626364656600000000000000000000000000000000600a86061a8153600a8581611fd257611fd16133ba565b5b04945060008503611f89575b819350505050919050565b60008073ffffffffffffffffffffffffffffffffffffffff1661200b83611bbe565b73ffffffffffffffffffffffffffffffffffffffff1614159050919050565b50505050565b50505050565b60006120578473ffffffffffffffffffffffffffffffffffffffff16612310565b156121b0578373ffffffffffffffffffffffffffffffffffffffff1663150b7a026120806116f1565b8786866040518563ffffffff1660e01b81526004016120a2949392919061343e565b6020604051808303816000875af19250505080156120de57506040513d601f19601f820116820180604052508101906120db919061349f565b60015b612160573d806000811461210e576040519150601f19603f3d011682016040523d82523d6000602084013e612113565b606091505b506000815103612158576040517f08c379a000000000000000000000000000000000000000000000000000000000815260040161214f9061339a565b60405180910390fd5b805181602001fd5b63150b7a0260e01b7bffffffffffffffffffffffffffffffffffffffffffffffffffffffff1916817bffffffffffffffffffffffffffffffffffffffffffffffffffffffff1916149150506121b5565b600190505b949350505050565b600080600090507a184f03e93ff9f4daa797ed6e38ed64bf6a1f010000000000000000831061221b577a184f03e93ff9f4daa797ed6e38ed64bf6a1f0100000000000000008381612211576122106133ba565b5b0492506040810190505b6d04ee2d6d415b85acef81000000008310612258576d04ee2d6d415b85acef8100000000838161224e5761224d6133ba565b5b0492506020810190505b662386f26fc10000831061228757662386f26fc10000838161227d5761227c6133ba565b5b0492506010810190505b6305f5e10083106122b0576305f5e10083816122a6576122a56133ba565b5b0492506008810190505b61271083106122d55761271083816122cb576122ca6133ba565b5b0492506004810190505b606483106122f857606483816122ee576122ed6133ba565b5b0492506002810190505b600a8310612307576001810190505b80915050919050565b6000808273ffffffffffffffffffffffffffffffffffffffff163b119050919050565b604051806060016040528060008152602001600073ffffffffffffffffffffffffffffffffffffffff168152602001600081525090565b6000604051905090565b600080fd5b600080fd5b60007fffffffff0000000000000000000000000000000000000000000000000000000082169050919050565b6123b38161237e565b81146123be57600080fd5b50565b6000813590506123d0816123aa565b92915050565b6000602082840312156123ec576123eb612374565b5b60006123fa848285016123c1565b91505092915050565b60008115159050919050565b61241881612403565b82525050565b6000602082019050612433600083018461240f565b92915050565b600081519050919050565b600082825260208201905092915050565b60005b83811015612473578082015181840152602081019050612458565b60008484015250505050565b6000601f19601f8301169050919050565b600061249b82612439565b6124a58185612444565b93506124b5818560208601612455565b6124be8161247f565b840191505092915050565b600060208201905081810360008301526124e38184612490565b905092915050565b6000819050919050565b6124fe816124eb565b811461250957600080fd5b50565b60008135905061251b816124f5565b92915050565b60006020828403121561253757612536612374565b5b60006125458482850161250c565b91505092915050565b600073ffffffffffffffffffffffffffffffffffffffff82169050919050565b60006125798261254e565b9050919050565b6125898161256e565b82525050565b60006020820190506125a46000830184612580565b92915050565b6125b38161256e565b81146125be57600080fd5b50565b6000813590506125d0816125aa565b92915050565b600080604083850312156125ed576125ec612374565b5b60006125fb858286016125c1565b925050602061260c8582860161250c565b9150509250929050565b60008060006060848603121561262f5761262e612374565b5b600061263d868287016125c1565b935050602061264e868287016125c1565b925050604061265f8682870161250c565b9150509250925092565b612672816124eb565b82525050565b60006126838261254e565b9050919050565b61269381612678565b82525050565b60006060820190506126ae6000830186612669565b6126bb602083018561268a565b6126c86040830184612669565b949350505050565b600081519050919050565b600082825260208201905092915050565b6000819050602082019050919050565b612705816124eb565b82525050565b61271481612678565b82525050565b60608201600082015161273060008501826126fc565b506020820151612743602085018261270b565b50604082015161275660408501826126fc565b50505050565b6000612768838361271a565b60608301905092915050565b6000602082019050919050565b600061278c826126d0565b61279681856126db565b93506127a1836126ec565b8060005b838110156127d25781516127b9888261275c565b97506127c483612774565b9250506001810190506127a5565b5085935050505092915050565b600060208201905081810360008301526127f98184612781565b905092915050565b60006020828403121561281757612816612374565b5b6000612825848285016125c1565b91505092915050565b60006020820190506128436000830184612669565b92915050565b61285281612403565b811461285d57600080fd5b50565b60008135905061286f81612849565b92915050565b6000806040838503121561288c5761288b612374565b5b600061289a858286016125c1565b92505060206128ab85828601612860565b9150509250929050565b600080fd5b600080fd5b7f4e487b7100000000000000000000000000000000000000000000000000000000600052604160045260246000fd5b6128f78261247f565b810181811067ffffffffffffffff82111715612916576129156128bf565b5b80604052505050565b600061292961236a565b905061293582826128ee565b919050565b600067ffffffffffffffff821115612955576129546128bf565b5b61295e8261247f565b9050602081019050919050565b82818337600083830152505050565b600061298d6129888461293a565b61291f565b9050828152602081018484840111156129a9576129a86128ba565b5b6129b484828561296b565b509392505050565b600082601f8301126129d1576129d06128b5565b5b81356129e184826020860161297a565b91505092915050565b60008060008060808587031215612a0457612a03612374565b5b6000612a12878288016125c1565b9450506020612a23878288016125c1565b9350506040612a348782880161250c565b925050606085013567ffffffffffffffff811115612a5557612a54612379565b5b612a61878288016129bc565b91505092959194509250565b60008060408385031215612a8457612a83612374565b5b6000612a928582860161250c565b9250506020612aa38582860161250c565b9150509250929050565b60008060408385031215612ac457612ac3612374565b5b6000612ad2858286016125c1565b9250506020612ae3858286016125c1565b9150509250929050565b7f4e487b7100000000000000000000000000000000000000000000000000000000600052602260045260246000fd5b60006002820490506001821680612b3457607f821691505b602082108103612b4757612b46612aed565b5b50919050565b7f4552433732313a20617070726f76616c20746f2063757272656e74206f776e6560008201527f7200000000000000000000000000000000000000000000000000000000000000602082015250565b6000612ba9602183612444565b9150612bb482612b4d565b604082019050919050565b60006020820190508181036000830152612bd881612b9c565b9050919050565b7f4552433732313a20617070726f76652063616c6c6572206973206e6f7420746f60008201527f6b656e206f776e6572206f7220617070726f76656420666f7220616c6c000000602082015250565b6000612c3b603d83612444565b9150612c4682612bdf565b604082019050919050565b60006020820190508181036000830152612c6a81612c2e565b9050919050565b7f4552433732313a2063616c6c6572206973206e6f7420746f6b656e206f776e6560008201527f72206f7220617070726f76656400000000000000000000000000000000000000602082015250565b6000612ccd602d83612444565b9150612cd882612c71565b604082019050919050565b60006020820190508181036000830152612cfc81612cc0565b9050919050565b7f4e487b7100000000000000000000000000000000000000000000000000000000600052603260045260246000fd5b7f506c656173652073656e64207468652061736b696e6720707269636520696e2060008201527f6f7264657220746f20636f6d706c657465207468652070757263686173650000602082015250565b6000612d8e603e83612444565b9150612d9982612d32565b604082019050919050565b60006020820190508181036000830152612dbd81612d81565b9050919050565b6000604082019050612dd96000830185612580565b612de66020830184612669565b9392505050565b7f4e487b7100000000000000000000000000000000000000000000000000000000600052601160045260246000fd5b6000612e27826124eb565b91507fffffffffffffffffffffffffffffffffffffffffffffffffffffffffffffffff8203612e5957612e58612ded565b5b600182019050919050565b7f4552433732313a20696e76616c696420746f6b656e2049440000000000000000600082015250565b6000612e9a601883612444565b9150612ea582612e64565b602082019050919050565b60006020820190508181036000830152612ec981612e8d565b9050919050565b7f4552433732313a2061646472657373207a65726f206973206e6f74206120766160008201527f6c6964206f776e65720000000000000000000000000000000000000000000000602082015250565b6000612f2c602983612444565b9150612f3782612ed0565b604082019050919050565b60006020820190508181036000830152612f5b81612f1f565b9050919050565b600081905092915050565b6000612f7882612439565b612f828185612f62565b9350612f92818560208601612455565b80840191505092915050565b6000612faa8285612f6d565b9150612fb68284612f6d565b91508190509392505050565b7f4d7573742070617920726f79616c747900000000000000000000000000000000600082015250565b6000612ff8601083612444565b915061300382612fc2565b602082019050919050565b6000602082019050818103600083015261302781612feb565b9050919050565b7f5072696365206d7573742062652067726561746572207468616e207a65726f00600082015250565b6000613064601f83612444565b915061306f8261302e565b602082019050919050565b6000602082019050818103600083015261309381613057565b9050919050565b7f4f776e61626c653a206e6577206f776e657220697320746865207a65726f206160008201527f6464726573730000000000000000000000000000000000000000000000000000602082015250565b60006130f6602683612444565b91506131018261309a565b604082019050919050565b60006020820190508181036000830152613125816130e9565b9050919050565b7f4552433732313a207472616e736665722066726f6d20696e636f72726563742060008201527f6f776e6572000000000000000000000000000000000000000000000000000000602082015250565b6000613188602583612444565b91506131938261312c565b604082019050919050565b600060208201905081810360008301526131b78161317b565b9050919050565b7f4552433732313a207472616e7366657220746f20746865207a65726f2061646460008201527f7265737300000000000000000000000000000000000000000000000000000000602082015250565b600061321a602483612444565b9150613225826131be565b604082019050919050565b600060208201905081810360008301526132498161320d565b9050919050565b7f4f776e61626c653a2063616c6c6572206973206e6f7420746865206f776e6572600082015250565b6000613286602083612444565b915061329182613250565b602082019050919050565b600060208201905081810360008301526132b581613279565b9050919050565b7f4552433732313a20617070726f766520746f2063616c6c657200000000000000600082015250565b60006132f2601983612444565b91506132fd826132bc565b602082019050919050565b60006020820190508181036000830152613321816132e5565b9050919050565b7f4552433732313a207472616e7366657220746f206e6f6e20455243373231526560008201527f63656976657220696d706c656d656e7465720000000000000000000000000000602082015250565b6000613384603283612444565b915061338f82613328565b604082019050919050565b600060208201905081810360008301526133b381613377565b9050919050565b7f4e487b7100000000000000000000000000000000000000000000000000000000600052601260045260246000fd5b600081519050919050565b600082825260208201905092915050565b6000613410826133e9565b61341a81856133f4565b935061342a818560208601612455565b6134338161247f565b840191505092915050565b60006080820190506134536000830187612580565b6134606020830186612580565b61346d6040830185612669565b818103606083015261347f8184613405565b905095945050505050565b600081519050613499816123aa565b92915050565b6000602082840312156134b5576134b4612374565b5b60006134c38482850161348a565b9150509291505056fea26469706673582212200128494f8a63991f298968dfd21a08c175ac979dd547fd0a92ba965e2ce487ef64736f6c6343000811003368747470733a2f2f6261667962656964686a6a626a6f6e7971636168757a6c707437737a6e6d683478726c62737061336773746f70356f34376c3667736961666665652e697066732e6e667473746f726167652e6c696e6b2f",
  "linkReferences": {},
  "deployedLinkReferences": {}
}